:10000000A82100209D0D0000990D0000990D000011
:1000100000000000000000000000000000000000E0
:10002000000000000000000000000000990D00002A
:100030000000000000000000990D0000990D000074
:10004000990D0000990D0000990D0000FD010000C0
:10005000990D0000990D0000F9070000990D0000AE
:10006000990D0000990D0000990D0000990D0000F8
:10007000990D0000990D0000990D0000990D0000E8
:10008000990D0000990D0000990D0000990D0000D8
:10009000990D0000990D0000990D0000990D0000C8
:1000A000990D0000990D0000990D0000990D0000B8
:1000B0000000000010B5064C2378002B07D1054B3B
:1000C000002B02D0044800E000BF0123237010BDC4
:1000D0000C000020000000006C110000084B10B55F
:1000E000002B03D00749084800E000BF0748036819
:1000F000002B00D110BD064B002BFBD09847F9E731
:1001000000000000100000206C1100006C110000C5
:100110000000000070B50020084B98470500084C0F
:10012000FA218900A047074B186007492800A0471B
:10013000064B18600522064B1A6070BDC105000011
:10014000750F00000400002040420F000000002056
:1001500010E000E00C4B1B68002B10D1EFF3108374
:10016000002B09D172B6BFF35F8F0022074B1A70C4
:100170000132074B1A7002E00022054B1A70024A46
:100180001368013313607047280000200800002026
:100190002C000020084B1A68013A1A601B68002BDB
:1001A00009D1064B1B78002B05D00122044B1A7095
:1001B000BFF35F8F62B67047280000202C0000203C
:1001C00008000020F0B583B001AC01256570002760
:1001D000A770257021002A20064EB0478022D20049
:1001E000054B9A612770657021000220B04703B06B
:1001F000F0BDC046090300008028004070B5002211
:10020000154B1A7000231F25144E134C1F2B19D9A0
:100210000FE0002100E012494A619B009B59002B2E
:1002200000D0984723780133DBB223700F2BEDD930
:1002300011E02900194001228A4000214969114238
:10024000E7D1EFE72900194001228A4004494969B2
:100250001142E0D1E6E770BD640000206800002094
:1002600000240040064A117802230B431370022138
:10027000012053681942FCD153681842F9D17047E4
:100280000024004000B583B0184A536980218900DA
:100290000B43536101A900230B700320144B9847B3
:1002A0000320144B9847144A117801230B43137011
:1002B0000221012053681942FCD15368184209D029
:1002C000F8E704C38B42FCD108220C4B1A600C4B9C
:1002D000984709E0084A137810218B431370094BA3
:1002E000190040310022ECE703B000BD00040040DB
:1002F0009D0600002D0600000024004000E100E003
:10030000650200006800002000B583B001AB8022C8
:100310001A700A785A704A789A708A78DA701900D6
:10032000014B984703B000BD9907000010B508289D
:1003300003D880001C4B1B589F46002032E01B4B0B
:1003400018692FE01A4B187D0007800F0130194BF8
:10035000584327E0154B586924E0144B1B680220D2
:1003600018401FD0124980225200CB681342FCD0A3
:100370000E4B1B685B0714D500200F4B98470B4BA7
:100380009B681B041B0C58430CE02823084AD35CD1
:1003900000209B0706D5054BD86803E080200002AB
:1003A00000E0064810BDC0461811000030000020D3
:1003B000000C004000093D00C1060000006CDC029A
:1003C00010B584B0802252002F4B9A60FD3A2F4B1B
:1003D0009A602F4A53681E218B4353608023DB05AC
:1003E0009B78022B0FD08023DB059B785BB2002B20
:1003F00009DB8023DB0501229A7101329A701A0011
:100400009379002BFCD0204B1A7D802149420A436E
:100410001A751A7DC0318A431A751E4B98471E4CB7
:100420000123A3716371237101A94B6000234B70F9
:1004300006220A700B724B720020184B984700205E
:10044000174B98470020174B98472179C9B2164B94
:100450009847164B984214D88023DB059B78002BD5
:100460000FD08023DB059B785BB2002B09DB802358
:10047000DB0501229A7100229A701A009379002BF1
:10048000FCD004B010BDC046000C00400014004079
:1004900000400041B104000000040040D504000009
:1004A00081050000C1050000750F0000001BB700AA
:1004B000064A516940230B4353610122044B1A70D1
:1004C00019000B781342FCD17047C046000400406D
:1004D0000018004070B505000C784B78002B02D056
:1004E0008023DB001C434B7A002B02D080231B01AE
:1004F0001C434A68012A17D9531E1A420FD1022AF7
:1005000006D90223002001305B009A42FBD800E0AC
:10051000002080235B011C430004044304E0120418
:1005200080239B001A4314430B7A002B02D08023B4
:100530009B011C430426AE400D490E4A4B681340F4
:100540001E42FBD10C4B9847AD00094B9C466544BD
:10055000286A80235B001840204328626146054AD0
:100560004B6813401E42FBD1044B984770BDC046F8
:1005700000180040FC070000550100009501000034
:1005800010B504000422824009480A4943680B4020
:100590001A42FBD1084B9847A400054B9C46644483
:1005A000236A8022520013432362044B984710BDF4
:1005B00000180040FC0700005501000095010000F4
:1005C000F8B50400042282401248134943680B40E6
:1005D0001A42FBD1114B98470E4F0834A400E05942
:1005E0000007000F0E4B98470600E559ED04ED0F8C
:1005F000E459240C0B4B9847002D07D1012C07D947
:1006000021003000084B9847060001E00134E64025
:100610003000F8BD00180040FC0700005501000044
:100620002D03000095010000750F000010B50400B7
:10063000094B9847A000094B9C4660448022815892
:1006400040230B4383508021403A43581A42FCD048
:10065000034B984710BDC0465501000000180040EC
:100660009501000010B50400094B9847A000094B04
:100670009C4660448022835840218B438350403104
:10068000403A43581A42FCD1034B984710BDC0462C
:1006900055010000001800409501000070B50400ED
:1006A0000D00054B98472B780F2213402034A400EF
:1006B000024AA35070BDC046650600000018004005
:1006C00010B50400064B98472034A400054BE458AD
:1006D0002407240F044B98472000044B984710BD73
:1006E000550100000018004095010000C105000000
:1006F00030B5D378002B1ED11378802B04D01B0685
:1007000080246402234300E0002354780225AC4394
:100710000AD19478002C03D18024A402234302E060
:10072000C024E402234341605478013C012C12D8D8
:10073000184C23400FE041600B041B0CA024E4057F
:10074000234383620B0CD024240623438362D37893
:10075000002B18D01CE00C04240CA025ED052C4324
:100760001C4384620C0CD0252D062C431C43846250
:10077000D478002C0CD15B0305D59378012B01D1E3
:10078000816100E041615378013B012B00D8816019
:1007900030BDC046FFFFFBFF10B503000A00C109D2
:1007A0000020002904D15809C00105498C46604445
:1007B0001F210B401E399940024B984710BDC0467F
:1007C00000280040F10600007047C04610B5054BF8
:1007D0009847054B9847054B9847054B9847054B5D
:1007E000984710BDC1030000C5010000C907000003
:1007F00085020000C9070000F0B55F4656464D4629
:100800004446F0B483B0CB4B1F683D682B78DB09BE
:1008100000D15AE12B8C9BB2002B00D1DBE0288C5D
:1008200080B2C54B9847041E1F2C00D9D3E00300AB
:1008300008335B01ED18ED79EDB2AB0751D0BF4A3B
:1008400001238340116899431160030008335B0161
:100850003A68944663440322DA713B18AE331B783E
:10086000DB073ED5B64B18703A68030008335B01CE
:100870009B5C9B079B0F012B10D14201B14B9B1836
:100880005A689204920CAE494A805A681201920C3E
:100890008A805A68920B92035A601AE04201A94B6F
:1008A0009B185A681201920C90B2A5494A805A6866
:1008B0009204920C8A805968A34A0A405A60002820
:1008C00007D163019F4AD3185B689B049B0C9C4A29
:1008D0005380984B1868A31C1B01C3185B68984988
:1008E00098476B070ED5954A0123A3401168994399
:1008F0001160904B1B681A68230008335B01D31802
:100900000422DA712B0721D58C4A0123A3401168F8
:1009100099431160874B1868230008335B01026814
:10092000944663440822DA710319AE331B789B079F
:100930000CD583490C706301824AD318DA891F23CE
:1009400013404B702301C3189B6A9847EB0622D5CE
:100950007A4A0123A340116899431160754B1868C6
:10096000230008335B010268944663441022DA7165
:100970000319AE331B785B070DD5714A1470630100
:100980007049CB185B681B019B0C53802301C31873
:10099000DB6A00219847AB0600D4F2E1674A0123E5
:1009A000A340116899431160624B18682300083313
:1009B0005B010268944663442022DA710319AE3366
:1009C0001B781B0700D4DCE15D490C70240104197D
:1009D000236B9847D5E1AC8BA4B2630708D50423F9
:1009E000AB83A133FB5CDB0702D57B6838009847FB
:1009F00023070DD50022514B1A604E4B186808236F
:100A0000026893839D33C35C9B0701D58368984735
:100A100063060AD5474B1868402302689383653301
:100A2000C35CDB0601D543699847A3060AD5414B51
:100A300018682023026893838533C35C1B0701D5A4
:100A400003699847E3060AD53A4B186810230268F1
:100A500093839533C35C5B0701D5C368984723062E
:100A60000DD50022354B1A60324B1868802302687E
:100A700093832533C35C9B0601D583699847E305BF
:100A80000ED500222D4B1A602A4B186880235B007C
:100A9000026893835B3BC35C5B0601D5C3699847DF
:100AA000A30500D46DE10022244B1A60214B186885
:100AB00080239B00026893835C3BFF3BC35C7F2BDE
:100AC00000D85EE1036A98475BE12E8CB6B2002E37
:100AD00040D1AE8BB6B2AB235B00FD5A3540023B32
:100AE000FB5A1D400024194F124B9946984663004B
:100AF000DB5B334203D04A461268126893832B4271
:100B000013D0062C07D10F4B1B891A0980235B00D9
:100B100013400F4A136023002E339B004246126895
:100B20009B580B494246106898470134072CDED188
:100B300027E1C046600000208D1000005400002016
:100B40004C000020A8000020FF3F00F03C110000F6
:100B5000480000203C005934FF3400230122944611
:100B60005F329146503A92460D3A9346B8462F006E
:100B7000D8B2019332001A416146114200D1FBE024
:100B80001A0008325201BA18D279D2B2217A2578E5
:100B9000294011404D4615422AD03D0047465B0191
:100BA000ED180823FF33EB5C5B0609D540220823D0
:100BB000FF33EA54883BFF3B0343754A93710AE0D5
:100BC0000823FF33EB5C9B0605D520220823FF3367
:100BD000EA546F4B987160230B4200D1D1E0019B26
:100BE0001B01FB18E0331B68694938009847C8E0CF
:100BF000554615421FD03D004746019A1300083361
:100C00005B01ED181023EB71BB186133FF331B78C8
:100C1000DB0600D4B5E0100053015E4AD3185B68D0
:100C20009B049B0C5A490B800301FB18DC331B68A7
:100C300040469847A5E05D4615423FD03D004746F7
:100C400080465B01ED180823FF33EB5C9B0712D550
:100C500002220823FF33EA544D4A883BFF3B0343FB
:100C60009371019B5B014B48C31810335B689B0475
:100C70009B0C538017E00823FF33EB5CDB0712D596
:100C800001220823FF33EA54414843468371019B04
:100C90005A01404B9B185A689204920C02805B6880
:100CA0001B019B0C83808B076BD0019B0D331B01B9
:100CB000FB185B6836493800984762E00C251542FE
:100CC0005AD03D00474680465B01ED180823FF33AC
:100CD000EB5C1B0721D508220823FF33EA54019857
:100CE00043012C4AD3189B7E9B0706D54201294B12
:100CF0009B189A7E022082439A7680235B4242466A
:100D00001343234A9371019B08335B013A6894466D
:100D10006344DB799B0723D533E00823FF33EB5C87
:100D20005B071DD504220823FF33EA5401984301D1
:100D3000184AD3189B7A9B0706D54201154B9B187E
:100D40009A7A022082439A72114B42469A71019B11
:100D500008335B013A6894466344DB79DB0710D4BF
:100D60000C230B420DD0019B1B01FB18D8331B68D1
:100D700007493800984704E001330134082B00D0BC
:100D8000F6E603B03CBC90469946A246AB46F0BDA1
:100D900058000020A8000020FEE7C04610B51D4BFB
:100DA0001D4A9A4203D01D4B1A4A9A4204D31C4B47
:100DB0001C4A9A4210D31EE01B4A184B03339B1A5D
:100DC0009B0801339B000022124813498C58845021
:100DD00004329A42FAD1EAE7144A114B03339B1AC0
:100DE0009B0801339B0000220E480021141821604B
:100DF00004329A42FAD10E4AFF210E4B8B43936084
:100E00000D4A516880230B4353600C4B98470C4BA1
:100E10009847FEE7000000206C1100000C00002045
:100E2000A80100200C000020040000201000002079
:100E300000ED00E00000000000400041CD10000087
:100E4000450E0000F0B557464E464546E0B484B026
:100E5000444B984700236A46D3716A46937103ADA9
:100E600001222A7002AE33707270290007203E4CB6
:100E7000A04729000620A04729002920A0472900D3
:100E80002820A04729000920A04729000820A047C2
:100E900029000B20A04729000A20A04729002D2067
:100EA000A04729002C20A04729002B20A04729007B
:100EB0002A20A04731001B20A0472C4B80229A619A
:100EC000403A5A611A0080328020800050618021AF
:100ED0004900916198615961802000015861802129
:100EE000C900996180239B01936180235B01536159
:100EF000506191611E4B98476B46DA1D981D1B4946
:100F0000012580239C46403B98460C008034802677
:100F1000B6001378DBB203700B6ADB0E2F009F4321
:100F200017701378002BF4D00378002BF1D16346AF
:100F3000CB614346CB61E66180235B00E361CE6118
:100F4000CB6180273F01CF618023DB009A46CB61D4
:100F500080239B01E36180235B01E361E7615346EA
:100F6000E361D6E7CD070000090300000028004038
:100F700015010000002243088B4274D303098B4201
:100F80005FD3030A8B4244D3030B8B4228D3030C59
:100F90008B420DD3FF22090212BA030C8B4202D3FB
:100FA0001212090265D0030B8B4219D300E0090A23
:100FB000C30B8B4201D3CB03C01A5241830B8B422C
:100FC00001D38B03C01A5241430B8B4201D34B0315
:100FD000C01A5241030B8B4201D30B03C01A52417A
:100FE000C30A8B4201D3CB02C01A5241830A8B42FF
:100FF00001D38B02C01A5241430A8B4201D34B02E8
:10100000C01A5241030A8B4201D30B02C01A52414B
:10101000CDD2C3098B4201D3CB01C01A52418309FF
:101020008B4201D38B01C01A524143098B4201D339
:101030004B01C01A524103098B4201D30B01C01A64
:101040005241C3088B4201D3CB00C01A52418308DE
:101050008B4201D38B00C01A524143088B4201D30B
:101060004B00C01A5241411A00D20146524110466B
:101070007047FFE701B5002000F006F802BDC0464A
:101080000029F7D076E770477047C04641420840D4
:101090001C2101231B04984201D3000C10391B0AA8
:1010A000984201D3000A08391B09984201D300096C
:1010B000043902A2105C401A7047C0461B1C1D1D5B
:1010C0001E1E1E1E1F1F1F1F1F1F1F1F0E4B70B532
:1010D00000251E000D4CE41AA410A54204D0AB005C
:1010E000F35898470135F8E700F030F8084B002531
:1010F0001E00084CE41AA410A54204D0AB00F3581B
:1011000098470135F8E770BD5811000058110000EC
:10111000581100005C1100003E0300003A0300007B
:101120003A0300009C0300009C03000054030000ED
:10113000440300005A0300008A0300000400080072
:10114000700080000100000100020000F8B5C046F8
:10115000F8BC08BC9E467047DD000000F8B5C046EC
:0C116000F8BC08BC9E467047B5000000BB
:0C116C0008000000401F0000010000000F
:0400000300000D9D4F
:00000001FF
