:1000000040200020B5070000B1070000B107000044
:1000100000000000000000000000000000000000E0
:10002000000000000000000000000000B107000018
:100030000000000000000000B1070000B107000050
:10004000B1070000B1070000B1070000B1070000D0
:10005000B1070000B1070000B1070000B1070000C0
:10006000B1070000B1070000B1070000B1070000B0
:10007000B1070000B1070000B1070000B1070000A0
:10008000B1070000B1070000B1070000B107000090
:10009000B1070000B1070000B1070000B107000080
:1000A000B1070000B1070000B1070000B107000070
:1000B0000000000010B5064C2378002B07D1054B3B
:1000C000002B02D0044800E000BF0123237010BDC4
:1000D0000400002000000000500A0000084B10B58A
:1000E000002B03D00749084800E000BF0748036819
:1000F000002B00D110BD064B002BFBD09847F9E731
:100100000000000008000020500A0000500A000013
:10011000000000000C4B1B68002B10D1EFF3108384
:10012000002B09D172B6BFF35F8F0022074B1A7004
:100130000132074B1A7002E00022054B1A70024A86
:100140001368013313607047200000200000002076
:1001500024000020084B1A68013A1A601B68002B23
:1001600009D1064B1B78002B05D00122044B1A70D5
:10017000BFF35F8F62B6704720000020240000208C
:10018000000000207047C04610B5082803D8800042
:100190001C4B1B589F46002032E01B4B18692FE078
:1001A0001A4B187D0007800F0130194B584327E088
:1001B000154B586924E0144B1B68022018401FD0CF
:1001C000124980225200CB681342FCD00E4B1B68B0
:1001D0005B0714D500200F4B98470B4B9B681B0403
:1001E0001B0C58430CE02823084AD35C00209B07D3
:1001F00006D5054BD86803E08020000200E00648E1
:1002000010BDC046E809000028000020000C004096
:1002100000093D0051070000006CDC02F0B54746C4
:1002200080B40100284B1B8A9C465A05520F437824
:100230000F241C40067873425E41F6B283781500A5
:10024000002B15D140680025204FB84210D9013548
:100250001F4FB8420CD901351E4FB84208D901359D
:100260001D4FB84204D915001C4A904200D80425FD
:100270004F7A0A7A90464968194A11610122B600FC
:10028000042160468843010031434046104080010C
:100290004026B143014338001040C0014036B1430D
:1002A00001432D020F48014029431340DA020E4B4F
:1002B0000B40134324031B051B0D2343024A1382E7
:1002C00004BC9046F0BDC046000C004080841E0077
:1002D00000093D0000127A000024F4000048E80103
:1002E00028000020FFF8FFFFFFF7FFFFF8B504002C
:1002F000C668037D012B06D1018A01314900300017
:10030000294B98470600A36818013100264B9847EF
:100310000F27074000092378DA0163789B01134314
:10032000DBB2224A282153543904431E1B051B0DFE
:100330000B43D3621500382104226B5C1342FCD1BD
:10034000A1780903E378DB00194323799B00194363
:10035000A37C0322944613401943258A2D04144A92
:100360002B0013401943E37C1B02E022D200134010
:100370001943227D1201302313400B430B4A1363B0
:10038000637D61460B40313153541500043108221E
:100390006B5C1342FCD10001C7197E43637D0433BB
:1003A000DE40044BDE60F8BD85080000000C004014
:1003B0000000FF0728000020082803D88000294BF0
:1003C0001B589F4617204BE0274A117D02230B4301
:1003D0001375002044E0254A916902230B43936181
:1003E00000203DE0204A118A02230B4313820020A3
:1003F00036E01E4A516902230B43536100202FE06F
:100400001B490B68022213430B60174B1A83190018
:10041000FE32CB681342FCD0154A9168124B196228
:100420005268DA6100221A8319000132FF32CB6868
:100430001342FCD00E4B1B689BB20B4A1383002067
:100440000EE009492822885C022303438B540800EC
:100450003821263A435C1342FCD1002000E0002002
:100460007047C0460C0A0000000C0040001000401D
:1004700028000020F0B58DB080225200474B9A60D2
:10048000FD3A474B9A60474A53681E218B4353609D
:100490008023DB059B78022B0FD08023DB059B7824
:1004A0005BB2002B09DB8023DB0501229A7101324C
:1004B0009A701A009379002BFCD009A800240470CC
:1004C00001258570384E4660047245720F234370D3
:1004D000364B98470020364FB847304B1A7D802165
:1004E00049420A431A751A7DC0318A431A75314B45
:1004F000984703A88470C47004712F4B83600582F1
:100500004475C47484740470012343700375C66019
:100510002A4B98470820B84720483C210322435CD7
:100520001340032BFBD11D4928228B5C80204042C5
:1005300003438B54224C0123A371637123710193F4
:1005400000236A4653701372537213706946002079
:100550001C4B984700201C4B984700201B4B98478A
:100560002179C9B21A4B98470F4B984214D880236F
:10057000DB059B78002B0FD08023DB059B785BB2DB
:10058000002B09DB8023DB0501229A7100229A707F
:100590001A009379002BFCD00DB0F0BD000C004088
:1005A0000014004000400041001BB7001D02000085
:1005B000B9030000D5050000006CDC02ED0200006C
:1005C00000040040F9050000A5060000E506000053
:1005D00085080000064A516940230B4353610122FC
:1005E000044B1A7019000B781342FCD17047C046B7
:1005F000000400400018004070B505000C784B78EE
:10060000002B02D08023DB001C434B7A002B02D04E
:1006100080231B011C434A68012A17D9531E1A4222
:100620000FD1022A06D90223002001305B009A4232
:10063000FBD800E0002080235B011C43000404433E
:1006400004E0120480239B001A4314430B7A002B0E
:1006500002D080239B011C430426AE400D490E4A64
:100660004B6813401E42FBD10C4B9847AD00094B21
:100670009C466544286A80235B001840204328621A
:100680006146054A4B6813401E42FBD1044B984714
:1006900070BDC04600180040FC07000015010000B6
:1006A0005501000010B504000422824009480A499F
:1006B00043680B401A42FBD1084B9847A400054BF6
:1006C0009C466444236A8022520013432362044BF5
:1006D000984710BD00180040FC07000015010000FD
:1006E00055010000F8B50400042282401248134965
:1006F00043680B401A42FBD1114B98470E4F083408
:10070000A400E0590007000F0E4B98470600E5597A
:10071000ED04ED0FE459240C0B4B9847002D07D145
:10072000012C07D921003000084B9847060001E052
:100730000134E6403000F8BD00180040FC0700001E
:100740001501000089010000550100008508000026
:1007500010B50400064B98472034A400054BE4581C
:100760002407240F044B98472000044B984710BDE2
:10077000150100000018004055010000E5060000CA
:100780007047C04610B5054B9847054B9847054B39
:100790009847054B9847054B984710BD75040000D6
:1007A000850100008107000081070000810700002B
:1007B000FEE7C04610B51D4B1D4A9A4203D01D4BA3
:1007C0001A4A9A4204D31C4B1C4A9A4210D31EE088
:1007D0001B4A184B03339B1A9B0801339B000022D2
:1007E000124813498C58845004329A42FAD1EAE7ED
:1007F000144A114B03339B1A9B0801339B000022C0
:100800000E4800211418216004329A42FAD10E4A8F
:10081000FF210E4B8B4393600D4A516880230B439D
:1008200053600C4B98470C4B9847FEE700000020A4
:10083000500A0000040000204000002004000020B6
:10084000040000200800002000ED00E0000000008F
:10085000004000419D0900005D08000010B5074BF5
:100860009847074A0424100080308021C900136A89
:100870001C4201D14161FAE78161F8E78507000078
:1008800000280040002243088B4274D303098B42A6
:100890005FD3030A8B4244D3030B8B4228D3030C50
:1008A0008B420DD3FF22090212BA030C8B4202D3F2
:1008B0001212090265D0030B8B4219D300E0090A1A
:1008C000C30B8B4201D3CB03C01A5241830B8B4223
:1008D00001D38B03C01A5241430B8B4201D34B030C
:1008E000C01A5241030B8B4201D30B03C01A524171
:1008F000C30A8B4201D3CB02C01A5241830A8B42F6
:1009000001D38B02C01A5241430A8B4201D34B02DE
:10091000C01A5241030A8B4201D30B02C01A524142
:10092000CDD2C3098B4201D3CB01C01A52418309F6
:100930008B4201D38B01C01A524143098B4201D330
:100940004B01C01A524103098B4201D30B01C01A5B
:100950005241C3088B4201D3CB00C01A52418308D5
:100960008B4201D38B00C01A524143088B4201D302
:100970004B00C01A5241411A00D201465241104662
:100980007047FFE701B5002000F006F802BDC04641
:100990000029F7D076E770477047C0460E4B70B518
:1009A00000251E000D4CE41AA410A54204D0AB0093
:1009B000F35898470135F8E700F03AF8084B00255E
:1009C0001E00084CE41AA410A54204D0AB00F35852
:1009D00098470135F8E770BD3C0A00003C0A00006A
:1009E0003C0A0000400A00009A0100009601000045
:1009F00096010000F8010000F8010000B0010000BD
:100A0000A0010000B6010000E6010000E4030000C0
:100A1000C4030000C40300005E040000D60300000D
:100A2000F2030000C80300000004000042040000BC
:100A3000F8B5C046F8BC08BC9E467047DD00000013
:100A4000F8B5C046F8BC08BC9E467047B50000002B
:040A500001000000A1
:04000003000007B53D
:00000001FF
