S0110000536E6F77666C616B652E7372656369
S1130000582400201901000015010000150100000A
S113001000000000000000000000000000000000DC
S113002000000000000000000000000015010000B6
S11300300000000000000000150100001501000090
S11300401501000015010000150100001501000054
S11300501501000015010000150100001501000044
S11300601501000015010000150100001501000034
S11300701501000015010000150100001501000024
S11300801501000015010000150100001501000014
S11300901501000015010000150100001501000004
S11300A015010000150100001501000015010000F4
S11300B00000000010B5064C2378002B07D1054B37
S11300C0002B02D0044800E000BF0123237010BDC0
S11300D038040020000000006C040000084B10B538
S11300E0002B03D00749084800E000BF0748036815
S11300F0002B00D110BD064B002BFBD09847F9E72D
S1130100000000003C0400206C0400006C040000AB
S113011000000000FEE7C04610B51D4B1D4A9A4280
S113012003D01D4B1A4A9A4204D31C4B1C4A9A42D0
S113013010D31EE01B4A184B03339B1A9B08013350
S11301409B000022124813498C58845004329A426E
S1130150FAD1EAE7144A114B03339B1A9B08013383
S11301609B0000220E4800211418216004329A4298
S1130170FAD10E4AFF210E4B8B4393600D4A51680E
S113018080230B4353600C4B98470C4B9847FEE776
S1130190000000206C0400003804002054040020F7
S11301A038040020040000203C04002000ED00E09E
S11301B00000000000400041C9020000A902000044
S11301C0014A024B1A60704700093D0000000020FC
S11301D010B51F284CD92023181A1F3B83400A78D6
S11301E0002A02D0012A36D10AE0012400E00024CA
S11301F08A78012A0ED0002A10D11800002118E0B4
S11302001A0001244B78012B0CD0002B0ED11000C6
S113021000210EE01900002000220AE00021002045
S1130220002206E011000020002302E0002100204B
S11302300023002C06D0012C24D110E0002108005A
S11302400A000B00104C2360104B1A60104B18600E
S1130250104B196016E000210020002200230E4CF0
S113026023600E4B1A600E4B18600E4B196009E0A8
S11302700123834008780028B9D01A0000240128FB
S1130280C0D0DBE710BDC046042800400828004069
S11302901428004018280040842800408828004082
S11302A0942800409828004010B5044B9847044B0C
S11302B019680720034B9847FEE7C046C1010000B8
S11302C004000020D101000070B50D4E0D4D002436
S11302D0AD1BAD1005D0A300F35801349847A542D7
S11302E0F9D100F0B1F8084E084D0024AD1BAD1053
S11302F005D0A300F35801349847A542F9D170BD45
S11303005404000054040000540400005C04000081
S1130310034B10B5002B02D0024800F005F810BDC5
S1130320000000003903000010B501000023002282
S1130330002000F01BF810BD70B5094B094CE41AFD
S1130340A41009D0084AA518AD00ED182B68013C8B
S11303509847043D002CF9D100F080F870BDC046E8
S1130360680400006C040000FFFFFF3FF8B544463A
S11303705F4656464D469B462F4BF0B41C68A4235B
S11303805B000500E0580E00904600284BD04368FF
S11303901F2B0DDC5C1C002D21D102339B0044601B
S11303A01E5000203CBC90469946A246AB46F8BD80
S11303B0224B002B3CD0C820400000E000BF0028A6
S11303C036D0A42200235200A15843600160A050FB
S11303D040328350043283500124002DDDD09A0032
S11303E091468144424688214F467A50C4225200A5
S11303F09046804442468739994012688A460A43A7
S11304009446424661461160842249465F46520042
S11304108F50022DC1D1020055468D32FF32116832
S11304200D431560B9E720004D30FF30E050AEE7D2
S113043001204042B6E7C04644040000000000002A
S11304404300000010000020F8B5C046F8BC08BC0A
S11304509E46704711030000DD000000F8B5C04659
S10F0460F8BC08BC9E467047B5000000C4
S113046C00093D000800002001000000000000000D
S113047C00000000FC02002064030020CC030020D8
S113048C000000000000000000000000000000005C
S113049C000000000000000000000000000000004C
S11304AC00000000400400000000000000000000F8
S11304BC000000000000000000000000000000002C
S11304CC000000000000000000000000000000001C
S11304DC000000000000000000000000000000000C
S11304EC00000000000000000000000000000000FC
S11304FC00000000000000000000000000000000EC
S113050C00000000000000000000000000000000DB
S113051C00000000000000000100000000000000CA
S113052C0E33CDAB34126DE6ECDE05000B0000008F
S113053C00000000000000000000000000000000AB
S113054C000000000000000000000000000000009B
S113055C000000000000000000000000000000008B
S113056C000000000000000000000000000000007B
S9030000FC
