S0110000536E6F77666C616B652E7372656369
S113000060240020A10100009D0100009D0100006A
S113001000000000000000000000000000000000DC
S11300200000000000000000000000009D0100002E
S113003000000000000000009D0100009D01000080
S11300409D0100009D0100009D0100009D01000034
S11300509D0100009D0100009D0100009D01000024
S11300609D0100009D0100009D0100009D01000014
S11300709D0100009D0100009D0100009D01000004
S11300809D0100009D0100009D0100009D010000F4
S11300909D0100009D0100009D0100009D010000E4
S11300A09D0100009D0100009D0100009D010000D4
S11300B00000000010B5064C2378002B07D1054B37
S11300C0002B02D0044800E000BF0123237010BDC0
S11300D0300400200000000034080000084B10B574
S11300E0002B03D00749084800E000BF0748036815
S11300F0002B00D110BD064B002BFBD09847F9E72D
S1130100000000003404002034080000340800001B
S11301100000000070B50D4E0422002130000C4C8C
S1130120A047012535700B4E042200213000A04762
S113013035707570084E042200213000A047B57058
S1130140042200210548A04770BDC0465004002089
S11301504D060000540400205C04002058040020D4
S113016030B583B00022002300920193009A019BD2
S1130170994202D810D190420ED901240025009A48
S1130180019B12196B4100920193009A019B9942C1
S1130190F5D801D19042F2D803B030BDFEE7C04695
S11301A010B51D4B1D4A9A4203D01D4B1A4A9A4260
S11301B004D31C4B1C4A9A4210D31EE01B4A184B12
S11301C003339B1A9B0801339B00002212481349F6
S11301D08C58845004329A42FAD1EAE7144A114BFB
S11301E003339B1A9B0801339B0000220E48002115
S11301F01418216004329A42FAD10E4AFF210E4BA0
S11302008B4393600D4A516880230B4353600C4B1E
S113021098470C4B9847FEE7000000203408000084
S1130220300400206004002030040020040000207A
S11302303404002000ED00E0000000000040004114
S1130240050600006D040000014A024B1A60704765
S113025000093D000000002086B0002317226A44F4
S1130260137003930293019300931F2804D901226E
S113027017336B441A7020380123834004930B789E
S1130280002B02D0012B0FD01CE0049A039B1343D4
S113029003938B78012B02D1049B009312E0002B73
S11302A010D1049B01930DE0049A029B1343029323
S11302B04B78012B02D1049B009303E0002B01D166
S11302C0049B019317236B441B78DBB2002B02D0F1
S11302D0012B0DD018E0039A0C4B1A60029A0C4BB8
S11302E01A60019A0B4B1A60009A0B4B1A600BE0D0
S11302F0039A0A4B1A60029A094B1A60019A094B35
S11303001A60009A084B1A6006B07047042800402F
S11303100828004014280040182800408428004081
S113032088280040942800409828004082B0002388
S11303306A46D37100931F2803D901226B46DA71F0
S11303402038012383400093002910D16B460733E2
S11303501B78DBB2002B02D0012B04D019E0009AE9
S11303600D4B1A6015E0009A0C4B1A6011E001293C
S11303700FD16B4607331B78DBB2002B02D0012B65
S113038004D006E0009A064B1A6002E0009A054B7E
S11303901A6002B07047C0461428004094280040F8
S11303A0182800409828004010B504492420044C23
S11303B0A04704490320A04710BDC04654040020B0
S11303C0590200005004002070B5064D2900202079
S11303D0054CA04729003F20A04729003E20A04704
S11303E070BDC046540400205902000070B5134D7E
S11303F029000720124CA04729000620A047290005
S11304002920A04729002820A04729000920A04727
S113041029000820A04729000B20A04729000A2012
S1130420A04729002D20A04729002C20A0472900FF
S11304302B20A04729002A20A04770BD500400208B
S11304405902000010B502491B20024B984710BD09
S11304505C0400205902000010B502491620024B2A
S1130460984710BD5804002059020000F8B5594BB4
S11304709847594B9847594B9847594B9847594B6C
S11304809847594B9847594B984701210720584C96
S1130490A04701212920A04701210920A0470121CB
S11304A00B20A04701212D20A04701212B20A0478C
S11304B000210720A04700212920A047002109206E
S11304C0A04700210B20A04700212D20A047002198
S11304D02B20A04701210620A04701212820A04766
S11304E001210820A04701210A20A04701212C2036
S11304F0A04701212A20A04700210620A04700216F
S11305002820A04700210820A04700210A20A04756
S113051000212C20A04700212A20A047344F354E2B
S113052001210720B84701212920B84701210920CA
S1130530B84701210B20B84701212D20B8470121DC
S11305402B20B8472C480021B04700210720B8478A
S113055000212920B84700210920B84700210B2099
S1130560B84700212D20B84700212B20B847234C41
S1130570002520002900B04701210620B8470121A9
S11305802820B84701210820B84701210A20B8478C
S113059001212C20B84701212A20B8471648002100
S11305A0B04700210620B84700212820B847002181
S11305B00820B84700210A20B84700212C20B8475A
S11305C000212A20B84720002900B0470C4B1B7893
S11305D0A6E7C0464902000015010000A903000077
S11305E0C9030000ED0300004504000059040000A5
S11305F02D03000061010000A861000050C3000049
S11306004C04002070B50D4E0D4D0024AD1BAD10F3
S113061005D0A300F35801349847A542F9D100F05E
S1130620F7F8084E084D0024AD1BAD1005D0A3000B
S1130630F35801349847A542F9D170BD1C08000055
S11306401C0800001C0800002408000070B5830783
S11306503FD0541E002A3BD0CEB20300032503E052
S1130660621E002C34D0140001335A1E16702B4223
S1130670F6D1032C24D9FF250D402A0215432A0460
S113068015430F2C11D92600103E360901363601C8
S11306901A009B19156055609560D560103293421D
S11306A0F8D10F221440032C0AD9261FB6080136AC
S11306B0B6001A009B1920C29342FCD103221440B5
S11306C0002C05D0C9B21C19197001339C42FBD10E
S11306D070BD14000300CCE7034B10B5002B02D00F
S11306E0024800F005F810BD0000000001070000FA
S11306F010B5010000230022002000F01BF810BDFB
S113070070B5094B094CE41AA41009D0084AA5187D
S1130710AD00ED182B68013C9847043D002CF9D13D
S113072000F080F870BDC0463008000034080000B6
S1130730FFFFFF3FF8B544465F4656464D469B468D
S11307402F4BF0B41C68A4235B000500E0580E0096
S1130750904600284BD043681F2B0DDC5C1C002DF9
S113076021D102339B0044601E5000203CBC9046C3
S11307709946A246AB46F8BD224B002B3CD0C8207C
S1130780400000E000BF002836D0A422002352001D
S1130790A15843600160A05040328350043283501A
S11307A00124002DDDD09A009146814442468821DF
S11307B04F467A50C42252009046804442468739BC
S11307C0994012688A460A4394464246614611603B
S11307D0842249465F4652008F50022DC1D1020047
S11307E055468D32FF3211680D431560B9E720007C
S11307F04D30FF30E050AEE701204042B6E7C0463E
S11308000C08000000000000430000000800002065
S1130810F8B5C046F8BC08BC9E467047D90600002F
S1130820DD000000F8B5C046F8BC08BC9E46704721
S1070830B50000000B
S113083400093D000000000000000000F402002054
S11308445C030020C403002000000000000000003A
S11308540000000000000000000000000000000090
S11308640000000000000000000000000808000070
S11308740000000000000000000000000000000070
S11308840000000000000000000000000000000060
S11308940000000000000000000000000000000050
S11308A40000000000000000000000000000000040
S11308B40000000000000000000000000000000030
S11308C40000000000000000000000000000000020
S11308D40000000000000000000000000000000010
S11308E401000000000000000E33CDAB34126DE6AD
S11308F4ECDE05000B000000000000000000000016
S113090400000000000000000000000000000000DF
S113091400000000000000000000000000000000CF
S113092400000000000000000000000000000000BF
S113093400000000000000000000000000000000AF
S9030000FC
