:100000005024002019010000150100001501000016
:1000100000000000000000000000000000000000E0
:1000200000000000000000000000000015010000BA
:100030000000000000000000150100001501000094
:100040001501000015010000150100001501000058
:100050001501000015010000150100001501000048
:100060001501000015010000150100001501000038
:100070001501000015010000150100001501000028
:100080001501000015010000150100001501000018
:100090001501000015010000150100001501000008
:1000A00015010000150100001501000015010000F8
:1000B0000000000010B5064C2378002B07D1054B3B
:1000C000002B02D0044800E000BF0123237010BDC4
:1000D000300400200000000088030000084B10B529
:1000E000002B03D00749084800E000BF0748036819
:1000F000002B00D110BD064B002BFBD09847F9E731
:100100000000000034040020880300008803000081
:1001100000000000FEE7C04610B51D4B1D4A9A4284
:1001200003D01D4B1A4A9A4204D31C4B1C4A9A42D4
:1001300010D31EE01B4A184B03339B1A9B08013354
:100140009B000022124813498C58845004329A4272
:10015000FAD1EAE7144A114B03339B1A9B08013387
:100160009B0000220E4800211418216004329A429C
:10017000FAD10E4AFF210E4B8B4393600D4A516812
:1001800080230B4353600C4B98470C4B9847FEE77A
:1001900000000020880300003004002050040020EC
:1001A00030040020040000203404002000ED00E0B2
:1001B0000000000000400041E5010000D101000006
:1001C000014A024B1A60704700093D000000002000
:1001D00010B5024B9847024B1A78FDE7C1010000A9
:1001E0004C04002070B50D4E0D4D0024AD1BAD101C
:1001F00005D0A300F35801349847A542F9D100F087
:10020000B1F8084E084D0024AD1BAD1005D0A30079
:10021000F35801349847A542F9D170BD700300002E
:10022000700300007003000078030000034B10B55A
:10023000002B02D0024800F005F810BD00000000BD
:100240005502000010B5010000230022002000F03C
:100250001BF810BD70B5094B094CE41AA41009D065
:10026000084AA518AD00ED182B68013C9847043DDD
:10027000002CF9D100F080F870BDC0468403000066
:1002800088030000FFFFFF3FF8B544465F4656462F
:100290004D469B462F4BF0B41C68A4235B00050021
:1002A000E0580E00904600284BD043681F2B0DDC11
:1002B0005C1C002D21D102339B0044601E500020A5
:1002C0003CBC90469946A246AB46F8BD224B002B5B
:1002D0003CD0C820400000E000BF002836D0A42257
:1002E00000235200A15843600160A0504032835067
:1002F000043283500124002DDDD09A0091468144C0
:10030000424688214F467A50C4225200904680448B
:1003100042468739994012688A460A4394464246C3
:1003200061461160842249465F4652008F50022D7B
:10033000C1D1020055468D32FF3211680D43156060
:10034000B9E720004D30FF30E050AEE701204042D9
:10035000B6E7C04660030000000000004300000054
:1003600008000020F8B5C046F8BC08BC9E4670479F
:100370002D020000DD000000F8B5C046F8BC08BC46
:080380009E467047B500000025
:1003880000093D000000000000000000F402002009
:100398005C030020C40300200000000000000000EF
:1003A8000000000000000000000000000000000045
:1003B8000000000000000000000000005C030000D6
:1003C8000000000000000000000000000000000025
:1003D8000000000000000000000000000000000015
:1003E8000000000000000000000000000000000005
:1003F80000000000000000000000000000000000F5
:1004080000000000000000000000000000000000E4
:1004180000000000000000000000000000000000D4
:1004280000000000000000000000000000000000C4
:1004380001000000000000000E33CDAB34126DE661
:10044800ECDE05000B0000000000000000000000CA
:100458000000000000000000000000000000000094
:100468000000000000000000000000000000000084
:100478000000000000000000000000000000000074
:100488000000000000000000000000000000000064
:00000001FF
