S0160000737461725F7265666572656E63652E7372656346
S1130000402000201D06000019060000190600000B
S113001000000000000000000000000000000000DC
S113002000000000000000000000000019060000AD
S1130030000000000000000019060000190600007E
S11300401906000019060000190600001906000030
S11300501906000019060000190600001906000020
S11300601906000019060000190600001906000010
S11300701906000019060000190600001906000000
S113008019060000190600001906000019060000F0
S113009019060000190600001906000019060000E0
S11300A019060000190600001906000019060000D0
S11300B00000000010B5064C2378002B07D1054B37
S11300C0002B02D0044800E000BF0123237010BDC0
S11300D0040000200000000094090000084B10B543
S11300E0002B03D00749084800E000BF0748036815
S11300F0002B00D110BD064B002BFBD09847F9E72D
S11301000000000008000020940900009409000089
S1130110000000000C4B1B68002B10D1EFF3108380
S1130120002B09D172B6BFF35F8F0022074B1A7000
S11301300132074B1A7002E00022054B1A70024A82
S11301401368013313607047200000200000002072
S113015024000020084B1A68013A1A601B68002B1F
S113016009D1064B1B78002B05D00122044B1A70D1
S1130170BFF35F8F62B67047200000202400002088
S113018000000020F0B583B001AC012565700027A4
S1130190A770257021002A20064EB0478022D20085
S11301A0054B9A612770657021000220B04703B0A7
S11301B0F0BDC046BD0100008028004000B583B0FA
S11301C001AB80221A700A785A704A789A708A7839
S11301D0DA701900014B984703B000BDB90500005F
S11301E010B5082803D880001C4B1B589F460020DC
S11301F032E01B4B18692FE01A4B187D0007800F63
S11302000130194B584327E0154B586924E0144B2F
S11302101B68022018401FD0124980225200CB686C
S11302201342FCD00E4B1B685B0714D500200F4B08
S113023098470B4B9B681B041B0C58430CE028236A
S1130240084AD35C00209B0706D5054BD86803E019
S11302508020000200E0064810BDC046500900009E
S113026028000020000C004000093D00E1040000CB
S1130270006CDC0210B584B0802252002F4B9A60CF
S1130280FD3A2F4B9A602F4A53681E218B435360CB
S11302908023DB059B78022B0FD08023DB059B7822
S11302A05BB2002B09DB8023DB0501229A7101324A
S11302B09A701A009379002BFCD0204B1A7D802170
S11302C049420A431A751A7DC0318A431A751E4B76
S11302D098471E4C0123A3716371237101A94B60DC
S11302E000234B7006220A700B724B720020184BCD
S11302F098470020174B98470020174B98472179BF
S1130300C9B2164B9847164B984214D88023DB0584
S11303109B78002B0FD08023DB059B785BB2002BEE
S113032009DB8023DB0501229A7100229A701A00EE
S11303309379002BFCD004B010BDC046000C0040E3
S11303400014004000400041650300000004004028
S1130350890300003504000075040000ED07000067
S1130360001BB700064A516940230B435361012225
S1130370044B1A7019000B781342FCD17047C04625
S1130380000400400018004070B505000C784B785C
S1130390002B02D08023DB001C434B7A002B02D0BD
S11303A080231B011C434A68012A17D9531E1A4291
S11303B00FD1022A06D90223002001305B009A42A1
S11303C0FBD800E0002080235B011C4300040443AD
S11303D004E0120480239B001A4314430B7A002B7D
S11303E002D080239B011C430426AE400D490E4AD3
S11303F04B6813401E42FBD10C4B9847AD00094B90
S11304009C466544286A80235B0018402043286288
S11304106146054A4B6813401E42FBD1044B984782
S113042070BDC04600180040FC0700001501000024
S11304305501000010B504000422824009480A490D
S113044043680B401A42FBD1084B9847A400054B64
S11304509C466444236A8022520013432362044B63
S1130460984710BD00180040FC070000150100006B
S113047055010000F8B504000422824012481349D3
S113048043680B401A42FBD1114B98470E4F083476
S1130490A400E0590007000F0E4B98470600E559E9
S11304A0ED04ED0FE459240C0B4B9847002D07D1B4
S11304B0012C07D921003000084B9847060001E0C1
S11304C00134E6403000F8BD00180040FC0700008D
S11304D015010000E101000055010000ED070000D6
S11304E010B50400064B98472034A400054BE4588B
S11304F02407240F044B98472000044B984710BD51
S113050015010000001800405501000075040000AA
S113051030B5D378002B1ED11378802B04D01B0662
S113052080246402234300E0002354780225AC4372
S11305300AD19478002C03D18024A402234302E03E
S1130540C024E402234341605478013C012C12D8B6
S1130550184C23400FE041600B041B0CA024E4055D
S1130560234383620B0CD024240623438362D37871
S1130570002B18D01CE00C04240CA025ED052C4302
S11305801C4384620C0CD0252D062C431C4384622E
S1130590D478002C0CD15B0305D59378012B01D1C1
S11305A0816100E041615378013B012B00D88160F7
S11305B030BDC046FFFFFBFF10B503000A00C109B0
S11305C00020002904D15809C00105498C46604423
S11305D01F210B401E399940024B984710BDC0465D
S11305E000280040110500007047C04610B5054BB7
S11305F09847054B9847054B9847054B9847054B3B
S1130600984710BD7502000085010000E90500004F
S1130610E9050000E9050000FEE7C04610B51D4BE2
S11306201D4A9A4203D01D4B1A4A9A4204D31C4BCA
S11306301C4A9A4210D31EE01B4A184B03339B1AE0
S11306409B0801339B000022124813498C588450A4
S113065004329A42FAD1EAE7144A114B03339B1A43
S11306609B0801339B0000220E48002114182160CE
S113067004329A42FAD10E4AFF210E4B8B43936007
S11306800D4A516880230B4353600C4B98470C4B25
S11306909847FEE7000000209409000004000020B1
S11306A04000002004000020040000200800002076
S11306B000ED00E0000000000040004105090000DA
S11306C0C5060000F0B557464E464546E0B484B032
S11306D0434B984700236A46D3716A46937103AD2E
S11306E001222A7002AE33707370290007203D4C3A
S11306F0A04729000620A04729002920A047290057
S11307002820A04729000920A04729000820A04745
S113071029000B20A04729000A20A04729002D20EA
S1130720A04729002C20A04729002B20A0472900FE
S11307302A20A04731001B20A0472B4B80229A611E
S1130740403A5A611A008032802080005061802132
S113075049009161986159618020000158618021AC
S1130760C900996180239B01936180235B015361DC
S1130770506191616B46DA1D981D1B490125802348
S11307809C46403B98460C0080348026B600137883
S1130790DBB203700B6ADB0E2F009F4317701378D4
S11307A0002BF4D10378002BF1D06346CB61434690
S11307B0CB61E66180235B00E361CE61CB6180277E
S11307C03F01CF618023DB009A46CB6180239B01EC
S11307D0E36180235B01E361E7615346E361D6E7AC
S11307E0ED050000BD010000002800400022430880
S11307F08B4274D303098B425FD3030A8B4244D3E5
S1130800030B8B4228D3030C8B420DD3FF22090226
S113081012BA030C8B4202D31212090265D0030BE5
S11308208B4219D300E0090AC30B8B4201D3CB03DB
S1130830C01A5241830B8B4201D38B03C01A52411D
S1130840430B8B4201D34B03C01A5241030B8B421F
S113085001D30B03C01A5241C30A8B4201D3CB020A
S1130860C01A5241830A8B4201D38B02C01A5241EF
S1130870430A8B4201D34B02C01A5241030A8B42F2
S113088001D30B02C01A5241CDD2C3098B4201D30A
S1130890CB01C01A524183098B4201D38B01C01A88
S11308A0524143098B4201D34B01C01A52410309FF
S11308B08B4201D30B01C01A5241C3088B4201D3AE
S11308C0CB00C01A524183088B4201D38B00C01A5B
S11308D0524143088B4201D34B00C01A5241411A82
S11308E000D20146524110467047FFE701B500208F
S11308F000F006F802BDC0460029F7D076E770473D
S11309007047C0460E4B70B500251E000D4CE41A0E
S1130910A410A54204D0AB00F35898470135F8E77A
S113092000F028F8084B00251E00084CE41AA41017
S1130930A54204D0AB00F35898470135F8E770BDE1
S1130940800900008009000080090000840900007B
S1130950F2010000EE010000EE0100005002000070
S11309605002000008020000F80100000E0200001E
S11309703E020000F8B5C046F8BC08BC9E4670476D
S1130980DD000000F8B5C046F8BC08BC9E467047C0
S1070990B5000000AA
S1070994010000005A
S903061DD9
