:10000000F02600203D330000393300003933000072
:1000100000000000000000000000000000000000E0
:100020000000000000000000000000003933000064
:1000300000000000000000003933000039330000E8
:10004000393300003933000039330000790D0000E6
:100050003933000039330000052200003933000035
:1000600039330000393300003933000039330000E0
:1000700039330000393300003933000039330000D0
:1000800039330000393300003933000039330000C0
:1000900039330000393300003933000039330000B0
:1000A00039330000393300003933000039330000A0
:1000B0000000000010B5064C2378002B07D1054B3B
:1000C000002B02D0044800E000BF0123237010BDC4
:1000D000F8000020000000008C380000084B10B52C
:1000E000002B03D00749084800E000BF0748036819
:1000F000002B00D110BD064B002BFBD09847F9E731
:1001000000000000FC0000208C3800008C3800004B
:100110000000000010B50F4900220A7000200E4BAD
:100120001A800E4BA1241C70813C5C705A809A800E
:100130001E3CDC801A810A4BE12252021A601871BF
:10014000587108229A710B780133DBB20B700120D1
:1001500010BDC046A801002054020020C0010020AC
:1001600014010020024A1378013BDBB21370704780
:10017000A8010020044A1378013BDBB21370137806
:100180000022024B1A7070471B010020B4010020AE
:1001900000207047002070471A4B1B785AB2002A83
:1001A00013DA602213400020202B2AD1154B5B78F4
:1001B000212B25D1134BDB88072B22D1114B124A5F
:1001C0009A6007229A8101301BE0602213400020D0
:1001D000202B16D10B4B5878202803D022384342CD
:1001E00058410EE0074BDB880020072B09D1054B57
:1001F000064A1A61044A9A6007229A81013000E097
:100200000020704798050020140100201102000012
:100210007047C04630B585B0454B1B78002B00D0E9
:1002200084E0444B9847002806D0434B1C88434B3E
:100230009847844206D179E03F4B1C88404B984751
:10024000844273D0EFF310835A425341039372B642
:10025000BFF35F8F00223B4B1A70039D3A4B1C7813
:10026000E4B26200394BD35A002B1DD1384A1388AF
:10027000013313802F4B9847002803D1344B1B8840
:10028000632B08D92B4B984700280DD0304B1A8888
:10029000304B9A4208D8002D48D00122294B1A70C1
:1002A000BFF35F8F62B641E00022294B1A802A4BD0
:1002B0001B78002B05D163426341DBB2224A1370E5
:1002C00002E063425C41E4B20122194B1A70002D36
:1002D00004D01C4B1A70BFF35F8F62B62500640018
:1002E0001A4BE35A190040394A1E9141CCB2402BB7
:1002F0000DD0104B9847002804D0104B98470E4B58
:10030000188007E00E4B98470B4B188002E0002244
:10031000094B1A806A000D4BD35AAA010F498A185B
:100320000F490091210081200E4CA04705B030BD3F
:10033000BC01002011150000B001002025150000AF
:1003400015150000F40000201C01002020010020F1
:10035000B20100201F0300005002002024010020F1
:10036000690300001918000010B500280DD1074BD3
:100370001B785A4253415B00002205495852054BF5
:100380001A70054B1A70054B984710BD1C010020D0
:100390002001002050020020BC01002015020000B6
:1003A00010B50020014B984710BDC0461502000053
:1003B00082B0EFF310835A425341019372B6BFF3F8
:1003C0005F8F00220A4B1A70019A0A4B18880A4B59
:1003D0001B785B0009495B5A181A002A05D00122D4
:1003E000034B1A70BFF35F8F62B602B07047C0460E
:1003F000F4000020AC010020B8010020A40100207E
:1004000010B5034B9847431E9841C0B210BDC0467B
:10041000B103000010B584B0EFF310835A4253418A
:10042000039372B6BFF35F8F00221F4B1A70039BBA
:100430001E4A1478E4B21E4A1278002A07D11D4AD7
:10044000128861001C48095A92B28A4209D20020DF
:10045000002B26D00122144B1A70BFF35F8F62B6B7
:100460001FE00021134A118062426241D2B20F495B
:100470000A7001210E4A1170002B05D001220A4B8F
:100480001A70BFF35F8F62B600200C4B9847A4012F
:100490000B4A12190B4B00934023012102200A4CF6
:1004A000A04704B010BDC046F4000020B8010020F1
:1004B0004C020020AC010020A40100200104000037
:1004C000CC0100205D0500001918000070B5002463
:1004D000154B1C70154B1C70154B1C70154B1C706C
:1004E000154B00251C805C80144B1C800020144B95
:1004F0009847144B1D70144B1D70144B1C805C806E
:10050000134B1C800020134B984700280AD0064A42
:1005100013780133DBB213701378012B02D101225F
:100520000D4B1A7070BDC0461B010020BC0100209D
:10053000500200201C01002020010020B0010020FA
:10054000150200004C020020B8010020A401002088
:10055000AC01002015040000B401002010B582B0E9
:10056000140000281BD10F4B1A7853425A41D2B2C3
:1005700000290AD192010C4B9A180C4B009340238E
:10058000013120000A4CA04709E089B25200094B12
:10059000D1520022084B1A700020084B984702B035
:1005A00010BDC046B8010020CC0100205D05000050
:1005B00019180000A40100204C02002015040000BE
:1005C00082B0EFF310835A425341019372B6BFF3E6
:1005D0005F8F0022134B1A70019A134B1B78DBB20A
:1005E00058001249405A402810D111490978002971
:1005F0000CD110490978002908D13F380D490870FD
:1006000059424B41DBB208490B7000204023181AB5
:10061000002A05D00122034B1A70BFF35F8F62B628
:1006200002B07047F40000201C01002020010020CF
:10063000BC0100205002002010B5034B9847431E18
:100640009841C0B210BDC046C1050000F0B55F467C
:1006500056464D464446F0B483B00C00214B9D797C
:10066000093D6B425D41EDB21F4B9B461F4B9846C7
:100670001F4B9A460020D847002804D11D4B1B78F9
:10068000002BF7D127E0EFF310835A425341019337
:1006900072B6BFF35F8F002342461370019F53462B
:1006A0001B78DBB2144A94465800825A511C6646A5
:1006B00081539B011149CB189C54002F05D0012276
:1006C0000A4B1A70BFF35F8F62B6002D02D024125E
:1006D0000025CFE7012003B03CBC90469946A246D6
:1006E000AB46F0BD1401002039060000F4000020E4
:1006F0001C010020B4010020200100202401002062
:1007000010B501000020014B984710BD4D060000B8
:1007100010B5114B1B681C68A378E27812021A43CB
:10072000A2180378C018904210D24378042B0FD03F
:100730008B4205D10FE04378042B0BD08B420AD0BB
:100740000378C0189042F6D3002004E0002002E0B5
:10075000002000E0002010BD5802002010B5034B1F
:100760005B887F201840024B984710BD98050020F9
:10077000F119000070B5184B1B780022002B29D00E
:10078000164B1B681B681C79844223D9144A1360DA
:100790009A78DC78240214431C19A34219D200254C
:1007A00001265A78042A0BD19A78824208D1DA7845
:1007B0008A4205D1002D01D0094A1360012209E0C7
:1007C0001A789B183500A342EBD3054A1360002228
:1007D00000E00022100070BD6002002058020020DE
:1007E00064020020F0B5474680B404000021124B9B
:1007F0009847051E1CD0114B1B685B68A200D3589C
:100800009846DB689847010020000B4B9847051E6F
:100810000ED00B4B1C680B4E0B4F05212000B04730
:10082000041E02D08078B847F7E743465B689847D4
:10083000280004BC9046F0BD750700005802002057
:10084000640200201107000035150000F8B505000E
:100850000F4B9847002819D00E4B1C680E4E0F4FB7
:1008600005212000B047041E09D003794279120205
:100870001A43C1788078B8470028F1D106E0084BC8
:100880001B685B68AD00EB581B689847F8BDC04615
:100890007507000064020020110700008D1500009C
:1008A0005802002010B5014B984710BDA11A000056
:1008B00070B50E4B1B78002B11D00D4B1B681B68BD
:1008C0001B79002B0BD000240A4E094D2000B047A5
:1008D0000134E4B22B681B681B79A342F6D80023CD
:1008E000024A1370044A138070BDC04660020020A3
:1008F00058020020E50700005E02002070B50D4B95
:100900001B78002B15D00C4B1B681A681279002A33
:100910000FD00024084D5B68A200D3581B69002B40
:1009200000D098470134E4B22B681A681279A242C9
:10093000F1D870BD6002002058020020F8B5BE4B0F
:1009400000229A811A615A611B785AB2002A00DB90
:10095000FFE1B94AD2880020002A00D0F5E100E288
:100960001F210B4000D07EE0B349497806290BD007
:10097000082970D0002976D1022A00D0B9E10231CD
:10098000AE48AF4B9847EBE1AB4B5B881A0A022AA3
:1009900010D0D1B2022902D8012A05D07AE1032A67
:1009A0002AD00F2A1CD075E1A64B18680178A44BF9
:1009B000984747E0DBB2A34A1268527C9A4200D8BB
:1009C00097E1A04A5268DB0098588378C178090201
:1009D00019439B4B9847984B9B6802225A7031E011
:1009E000984B9868002800D183E18378C178090288
:1009F0001943934B984725E0FF221340012B0FD05A
:100A0000002B08D0022B00D1A7E1032B00D048E136
:100A100007218D4C06E004218C48894B984711E052
:100A20008B4C10218B4A0023E05C50800133023252
:100A3000D8B28842F8D3490002318648017089B2A1
:100A40007F4B98477C4BDA889B89934200D887E19B
:100A5000794B9A8184E1012A00D04AE101217E4844
:100A6000774B98477CE1012B27D1734949780A29B4
:100A700023D1012A00D01AE1774B1B78002B00D13B
:100A800015E16D4B1C79754B1D682B681B79A342D2
:100A900000D80CE100212000714B9847002800D1BC
:100AA000FFE06B68A400E358DB6898476D4B187053
:100AB00001211800624B984752E1022B00D0F0E070
:100AC0005D4B5B780020002B00D0E8E0022A00D0CC
:100AD0000FE1594B1879644B9847644B18800221F9
:100AE0001800574B98473BE11F22134062D1524AEE
:100AF0005278032A00D1CFE0D1B2032902D8012ACB
:100B00000ED057E0052A02D0092A19D052E04A4BEC
:100B1000DB88002B00D0ECE0554A474B1A611FE1FF
:100B2000454BDB88002B00D0E3E0434B5B88012B77
:100B300000D0DEE0414A138802218B4313800FE18D
:100B40003D4BDB88002B00D0D3E04A4B9847002870
:100B500000D1A6E0384B9A783A4B1B685B7C9A42EE
:100B600000DD9EE0444B9847334B9B783A4A137024
:100B7000002B00D1F4E0414A94466344DB00314A43
:100B80005268D318354A13601B681B79002B00D1BB
:100B9000E6E000243A4D160000212000A847002876
:100BA00000D17EE00134E4B233681B681B79A342B4
:100BB000F2D8D5E0012B18D11F4A52780B2A14D154
:100BC0001D4BDB88002B72D1234B1B78002B6ED082
:100BD000194B1D795C8828002A4B9847002860D063
:100BE000E1B22800264B984759E0022B59D1124B0D
:100BF0005B78012B02D0032B0DD04FE00E4BDB882E
:100C0000002B76D10C4B5B88002B72D10A4B1879E4
:100C10001D4B984743E0084BDB88002B69D1064BFE
:100C20005B88002B65D1044C2079184B98472079BC
:100C3000174B984733E0C046980500205E0200201D
:100C4000111A000034000020F0370000F0000020EE
:100C5000B8000020CC0000206002002058020020D4
:100C6000750700005C020020951600005602002067
:100C70005D070000011A0000B1080000FFFFFF1F20
:100C80004D080000E5070000D5170000D51400004E
:100C9000A9160000002002E0002000E0002000284B
:100CA0005FD1304B1B781F221340012B21D12E4BDB
:100CB0001B780020002B54D02A4B1C792B4B1D682D
:100CC0002B681B79A3424CD900212000284B984760
:100CD00000280ED06B68A200D558EB689847010039
:100CE0002000234B9847002803D0AB689847002882
:100CF00037D11C4B1B781F2213400020022B30D110
:100D0000194B1B78002B2CD0184B1B681A681279D2
:100D1000002A18D00025164E144F5B68AA00D4583C
:100D2000E368984701002800B047002819D0A3685D
:100D30009847002815D10135EDB23B681A68127941
:100D4000AA42EAD80DE000200BE060211942A8D1A8
:100D500006E660221A42A4D1C6E60C21054C61E6E3
:100D60000120F8BD980500206002002058020020F4
:100D700075070000A800002070B50022154B1A70FE
:100D800000231F25144E134C1F2B19D90FE00021EF
:100D900000E012494A619B009B59002B00D0984704
:100DA00023780133DBB223700F2BEDD911E029003A
:100DB000194001228A40002149691142E7D1EFE739
:100DC0002900194001228A40044949691142E0D1B1
:100DD000E6E770BD2D030020300300200024004012
:100DE000064A117802230B43137002210120536835
:100DF0001942FCD153681842F9D1704700240040D1
:100E000000B583B0184A5369802189000B435361B0
:100E100001A900230B700320144B98470320144BA7
:100E20009847144A117801230B43137002210120C3
:100E300053681942FCD15368184209D0F8E704C33B
:100E40008B42FCD108220C4B1A600C4B984709E0EE
:100E5000084A137810218B431370094B1900403155
:100E60000022ECE703B000BD00040040DD310000CB
:100E70006D3100000024004000E100E0E10D0000C1
:100E80003003002010B584B004000422274903A8D1
:100E9000274B9847274B1B78A34245D0002C1ED0E8
:100EA00003AB1B5D244AD25CFF2A00D1FEE7EFF3BF
:100EB000108251424A41019272B6BFF35F8F002106
:100EC0001E4A117001981C49CA5C0132CA5400289C
:100ED00005D00122194B1A70BFF35F8F62B6154B14
:100EE0001B78002B1ED003AAD35C134AD25C002AC5
:100EF00000D1FEE7EFF3108251424A41029272B6EE
:100F0000BFF35F8F00210D4A117002980A49CA5C35
:100F1000013ACA54002805D00122084B1A70BFF3C9
:100F20005F8F62B6034B1C7004B010BDF837000031
:100F3000CD370000E802002028030020F400002044
:100F40000F2303405B00C0091818023883001818EB
:100F50008000014B181870476C020020F0B557460E
:100F60004E464546E0B489468E7973B2002B51DA7D
:100F700030005C4B984704000F2333409846038AA7
:100F80009A464B465F88C3689C466744C76085683D
:100F9000AF4224D0ED1BADB2534B9D4206D91D008C
:100FA00051461800514B98476D1AADB2A37C0022F0
:100FB0009B0706D5514628004D4B984789B24A42B7
:100FC0004A415100A37C022293431943A1746268F1
:100FD000D2192B0041464748474CA0477DE0837C0F
:100FE0009B070BD5837C0222934383744268D219FA
:100FF000002341463F48404CA0476EE0837C0122DD
:10100000934383740368002B67D0320039000020BB
:10101000984762E03000334B984704000F27374071
:10102000038A98464B461B889A46837C5B0710D5FB
:101030004368C268944663441D00414680682C4B57
:1010400098470A00791E89012C4BC91828002C4B9F
:101050009847E36853441D1EE360A3689D4201D98D
:10106000E3602FE04A46928852452BD19D4229D019
:101070005B1B9EB21C4B9E4207D91E0041461800C6
:101080001A4B9847731A9BB205E041463000184B43
:101090009847731A9BB298450DD9A27C0423134339
:1010A000A3747A1E9201154BD21843463900114899
:1010B000144CA04711E06268521939000D48114CD8
:1010C000A0470AE0A37C01229343A3742368002B6A
:1010D00003D0E1683200002098471CBC9046994636
:1010E000A246F0BD410F0000FF1F00003537000091
:1010F000613500003004002025210000700300202D
:10110000CD3700007521000010B50522054B1A707F
:10111000054C80212000054B984700212000044BFE
:10112000984710BDE7020020300400207520000021
:101130009D20000070B5084C06212000074DA847EF
:1011400004212000A84702212000054B98470220D7
:10115000044B984770BDC04630040020851B00003A
:10116000651B0000850E000070B5134B1B8B9B06A2
:1011700007D41149D0221201CB6813409342FBD10E
:1011800005E00D4980225200CB681342FCD00B4C85
:10119000022120000A4B984704212000094DA8474E
:1011A000094A06212000094B984706212000A8473C
:1011B0000320074B984770BD000C0040300400200E
:1011C000851B0000651B000035110000411B00005D
:1011D000850E000010B5064C04212000054B9847F1
:1011E00002212000044B98470120044B984710BD72
:1011F00030040020851B0000651B0000850E0000E8
:1012000030B583B004001E4B984780232268937248
:1012100001AD28001B4B984703236B702900200069
:10122000194B984719492000194B9847194B02222E
:1012300000212000184DA847184B00220021200053
:10124000A847174B012200212000A84702220021B5
:101250002000144DA847002200212000A8470122A9
:1012600000212000A847226811890F4B0B408021E4
:10127000C9000B43138100220C4B1A7003B030BD20
:10128000B1080000A91D0000B91D0000B005002034
:10129000C1210000E5130000A11B0000D5160000CD
:1012A000ED120000F11B0000FFF3FFFFE70200203A
:1012B00010B50322074B1A70074C08492000084B51
:1012C0009847084B9A68002300212000064CA0474D
:1012D00010BDC046E702002030040020B005002009
:1012E000C1210000980500202521000010B5897952
:1012F0004BB2002B0CDA0D4B1B78012B02D10C4B9F
:10130000984712E0042B10D10A480B4B98470CE089
:10131000064B1B78022B03D10422044B1A7004E005
:10132000032B02D10348044B984710BDE70200206D
:10133000B1120000300400207520000070B5204B71
:101340001A88204B9C89A41AA4B2002C20D11E49D3
:101350000B88D3189BB20B801A4AD2889A4203D0CA
:101360001A4B1B78002B07D00422194B1A7019490D
:1013700019481A4B984722E0124B5B69002B0ED09C
:10138000984700280BD000220D4B1A800D4B9C89EA
:101390003F2C04D900220D4B1A70402402E0012298
:1013A0000A4B1A70064D2B88064A9268D218230001
:1013B000002109480A4EB0472B88E4182C8070BDE4
:1013C000E40200209805002068020020E6020020C8
:1013D000E7020020B005002030040020C1210000F9
:1013E0002521000010B50C002C4B1B78002B07D0DA
:1013F0002B4B1B69002B00D098470022274B1A70FB
:101400002388082B02D0274B984745E0244A264BD7
:101410001978117059785170D97809029878411863
:10142000518059790902187941189180D9790902B6
:101430009B795B18D3801D4B9847002802D1194B2C
:10144000984729E0164B1B787F2B10D90023184AA8
:101450001380184A13800222104B1A704023124A3C
:1014600000211548154CA047154B984714E00C4B2C
:10147000DB88002B02D1134B98470DE000230C4A68
:1014800013800C4A13800122044B1A704023064A31
:1014900000210948094CA04710BDC046E7020020C2
:1014A0009805002009110000B00500203D0900004A
:1014B00068020020E40200203004002075210000B2
:1014C0003D130000B112000010B5014B984710BD4C
:1014D000FD08000010B5040001000A480A4B9847B7
:1014E00020000A4B9847837CDB070AD5837C0122C6
:1014F000934383740368002B03D0C168220001204A
:10150000984710BD3004002011200000410F00005A
:1015100000207047024B1B68188A8004400D7047FA
:1015200030040020024B1B68188A80B27047C04606
:101530003004002070B582B0040001AD28000D4BCE
:10154000984720000C4B98472C700023EB700B4EF3
:10155000290030000A4B98470F212140002230001B
:10156000084B9847002221003000074B984702B0F3
:1015700070BDC046A91D0000D51400003004002035
:10158000B91D0000C91B0000CD1C0000F0B583B0E0
:1015900006000C00150001AF3800364B98473E702E
:1015A000082D03D8002201AB5A702EE0102D03D86D
:1015B000012201AB5A7028E0202D03D8022201AB92
:1015C0005A7022E0402D03D8032201AB5A701CE070
:1015D000802D03D8042201AB5A7016E080235B00F3
:1015E0009D4203D8052201AB5A700EE080239B0078
:1015F0009D4203D8062201AB5A7006E000231E4A22
:10160000954233D8072201AB5A7030001B4B9847E4
:10161000058203212140012903D1022201ABDA70A6
:101620000BE0022903D1032201ABDA7005E00023AD
:1016300003291BD1042201ABDA7001A91048114B18
:1016400098470023002811D10F2131400C4C0E4B3C
:10165000002220000D4DA8470022310020000C4D33
:10166000A847012231002000A8470123180003B039
:10167000F0BDC046A91D0000FF030000410F00009F
:1016800030040020B91D00005D0F0000A11B000008
:10169000F11B000010B501000148024B984710BD36
:1016A000300400204920000010B504000F2303403F
:1016B0000020032B07D821000348044B9847200043
:1016C000034B9847012010BD300400207520000016
:1016D000D514000070B5344B1B78012B55D10D8803
:1016E000324B9B89324A14886219934201DA1D1BDE
:1016F000ADB22E4B986800192A002E492E4B984700
:101700006419A4B22A4B1C80402D06D1274BDA88DD
:101710002A4B1B881B199A4210DC244B9C815B6965
:10172000002B08D09847002805D105221E4B1A70BF
:10173000234B984736E0234B984733E01B4B9B895C
:10174000A3421BD1194B5B69002B06D10522164B16
:101750001A7000201A4B984724E09847002805D1BA
:101760000522114B1A70164B98471BE01349104A7B
:1017700008881388C3180B800023138040230D4A68
:1017800000211148114CA0470CE0022B02D1104B54
:10179000984707E0054B1B69002B00D098470022B3
:1017A000014B1A7070BDC046E7020020980500206A
:1017B000E4020020B0050020CD37000068020020C0
:1017C000A9160000B11200003004002075210000AD
:1017D0003D13000070B504000F2303400020032BCD
:1017E00012D82000094B9847050021000848094BF2
:1017F0009847AB7C0120DB0706D5AB7C01229343E5
:10180000AB742B689847012070BDC046410F0000A3
:10181000300400209D200000F0B587B00500039142
:10182000029201930F2303401E000024032B00D9D2
:10183000C7E0654B9847041E00D0BDE02800634B0D
:1018400098470700EFF310835A425341059372B64D
:10185000BFF35F8F00225E4B1A70059A837CDB0713
:1018600009D5002A00D1ACE00122594B1A70BFF310
:101870005F8F62B6A5E0817C01230B438374002A4D
:1018800005D00122524B1A70BFF35F8F62B6029BE4
:101890007B60019BBB600023FB600C9B3B600123D2
:1018A000039A13405A00BB7C02218B43134304224A
:1018B0009343BB746BB2002B3FDA019B002B1CD00F
:1018C0009CB2444B9C4206D9398A1C001800424BFA
:1018D0009847631A9CB2BA7C0023920706D5398ACE
:1018E00020003E4B984789B24B424B415B00BA7C8B
:1018F00002218A431343BB7415E0BB7C9B0705D5CB
:10190000BB7C02229343BB7400240CE0BB7C01220D
:101910009343BB740C9B002B50D02A000021002065
:10192000984701244DE02300029A31002C482D4CA9
:10193000A04744424441E4B243E0019B002B2ED037
:101940009CB2244B9C4207D9398A1C001800224BB8
:101950009847631A9AB205E0398A20001F4B9847CE
:10196000631A9AB23B8A9A420FD2B97C04220A4384
:10197000BA74721E92011C495218310018481B4C4F
:10198000A04744424441E4B21BE01300029A3100F4
:101990001348164CA04744424441E4B211E0BB7CDA
:1019A00001229343BB740C9B002B09D02A00002119
:1019B00000209847012404E0002402E0012400E014
:1019C0000124200007B0F0BD95160000410F000073
:1019D000F4000020FF1F00003537000061350000D3
:1019E0003004002025210000700300207521000034
:1019F000024B1A688023184390727047300400200D
:101A0000024B1B68987A4006400E70473004002055
:101A1000014B9860998170479805002070B50320AC
:101A2000164B9847164C2268138901218B4313816A
:101A3000144A03312000144EB047144A00212000FC
:101A4000B047134A01212000B047124A022120006A
:101A5000B04704212000104DA84700212000A847CE
:101A600001212000A84702212000A8470B4A062197
:101A70002000B04706212000A84770BD850E000059
:101A800030040020D5110000411B0000C9140000E3
:101A90000112000069110000651B000035110000F3
:101AA00070B582B0EFF310835A425341009372B67F
:101AB000BFF35F8F00221A4B1A70009C01AD280003
:101AC000184B98470323AB70174E2A008221C90593
:101AD0003000164B98473000154B9847154B1B8B21
:101AE0009B0607D41349D0221201CB6813409342BE
:101AF000FBD105E00F4980225200CB681342FCD095
:101B000001200D4B98470D4B9847002C05D0012222
:101B1000034B1A70BFF35F8F62B602B070BDC04650
:101B2000F4000020A527000030040020B5270000A5
:101B3000F1210000000C0040850E00001D1A00007D
:101B400010B50B002E339B001A50AA2252004900F8
:101B5000845A034BCB5A23438352002010BDC04606
:101B6000103800004900064BCB5A02689383AB2122
:101B70004900425A1A4342520268138300207047B8
:101B8000103800004900054BCA5AAB214900435A9E
:101B90009343435203689A82002070471038000034
:101BA00010B58C00A4183434A400041963604118E3
:101BB0005931FF310878034B9B5C03430B700020C5
:101BC00010BDC0462038000010B58B009B18343380
:101BD0009B00C31800245C6041185931FF31034B4E
:101BE0009A5C0B7893430B70002010BD20380000E6
:101BF00070B50F230B40C4186134FF342678324D82
:101C0000AD5C35432570002A1FD1002B08D15C0143
:101C10000568AC4664440A34FF34032525703DE072
:101C20004CB2002C08DA5C010568AC4664440A3406
:101C3000FF340225257031E05C010568AC46644440
:101C40000A34FF340125257028E0012A1CD1002B1D
:101C500007D102685B01D3180A33FF330C221A70D4
:101C600030E049B2002907DA02685B01D3180A3371
:101C7000FF3308221A7025E002685B01D3180A338B
:101C8000FF3304221A701DE0022A07D102685B01AB
:101C9000D3180A33FF3310221A7013E0032A11D12C
:101CA00049B2002907DA02685B01D3180A33FF330F
:101CB00040221A7006E002685B01D3180A33FF3332
:101CC00020221A70002070BD2038000070B50F234C
:101CD0000B40C4186134FF34324DAE5C2578B543F7
:101CE0002570002A1FD1002B08D15C010568AC4685
:101CF00064440934FF34032525703DE04CB2002CC8
:101D000008DA5C010568AC4664440934FF340225F6
:101D1000257031E05C010568AC4664440934FF3449
:101D20000125257028E0012A1CD1002B07D102686B
:101D30005B01D3180933FF330C221A7030E049B22B
:101D4000002907DA02685B01D3180933FF33082240
:101D50001A7025E002685B01D3180933FF330422AF
:101D60001A701DE0022A07D102685B01D3180933FB
:101D7000FF3310221A7013E0032A11D149B200294F
:101D800007DA02685B01D3180933FF3340221A7067
:101D900006E002685B01D3180933FF3320221A7072
:101DA000002070BD20380000002303704370837052
:101DB0000133C3707047C046F0B50A780F23134053
:101DC0001C0052B2CB78042B00D9F1E09B008D4D62
:101DD000EB589F460368083464010022E254002354
:101DE0000EE1620103689C46624480235B00D55C7F
:101DF000E43B6D0700D003E1E433D65CE43B70259F
:101E00002E4200D0FCE05F3DE433D554230008337C
:101E10005B010268D2182F3555710268D3188022F1
:101E20001A718B78002B0BD06201774B9B18586886
:101E300080252D06284358605A692A435A610AE0D2
:101E40006201714B9B185A68520052085A605A69D5
:101E5000520052085A610722487863016A4CE4181C
:101E6000636810400007694D2B40034363604B7863
:101E700061691A4013070A002A401A43626100236D
:101E8000BEE0002A18DA650103689C466544802399
:101E90005B00EF5CE43B7026374200D0B0E0903648
:101EA000AF5D04333B43AB550068230008335B014F
:101EB000C318802018717BE0650103689C46654467
:101EC00080235B00EE5CE43B760700D098E0802640
:101ED0007600AF5D1A3B3B43AB55006823000833E7
:101EE0005B01C3184020587162E0002A17DA6501CF
:101EF00003689C46654480235B00EF5CE43B7026EE
:101F000037427DD19036AF5D14333B43AB5500680B
:101F1000230008335B01C3188020187148E0650175
:101F200003689C46654480235B00EE5CE43B7607D7
:101F300066D180267600AF5D193B3B43AB55006808
:101F4000230008335B01C3184020587130E0002A99
:101F500017DA650103689C46654480235B00EF5CEB
:101F6000E43B702637424BD19036AF5D24333B4380
:101F7000AB550068230008335B01C318802018713B
:101F800016E0650103689C46654480235B00EE5CB7
:101F9000E43B760734D180267600AF5D183B3B43A7
:101FA000AB550068230008335B01C318402058710B
:101FB000D20F4D7863009B181B011348C3185E684D
:101FC000072005402D0711483040284358608B7882
:101FD000002B0BD063009A1812010B4CA218536807
:101FE000802109060B435360002309E063009A181F
:101FF0001201054B9A1853685B005B08536000237D
:102000001800F0BDFC370000F0050020FFFFFF8F37
:102010000F230B4049B200290ADA08335B0102683A
:10202000D218802111710268D3180222DA7109E0F6
:1020300008335B010268D218402151710268D3183D
:102040000122DA717047C0460F230B4049B20029C4
:1020500007DA026808335B01D31898798006C00F4D
:1020600006E0026808335B01D3189879C006C00FF8
:102070007047C0460F230B4049B2002906DA0268B8
:1020800008335B01D31820225A7105E00268083337
:102090005B01D31810225A717047C04630B50F2328
:1020A0000B4049B200291EDA5901026852188324F4
:1020B0006400145DA40634D52025822464001555DF
:1020C0000268944661440822FF328A5C520628D591
:1020D000C43C0822FF328C54026808335B01D318D9
:1020E00002221A711DE0590102685218832464000B
:1020F000145DE40615D51025822464001555026888
:10210000944661440822FF328A5C920609D5E43C79
:102110000822FF328C54026808335B01D318012275
:102120001A7130BD30B50C00083464010568645D77
:102130006406640F1C25002C16D04C010B4D2C1985
:102140002500226164690A4A22406A616C699B0425
:102150009A0CA30B9B0313436B610368083149017D
:10216000591880234B710025280030BDF005002050
:10217000FF3F00F030B50C00083464010568645D71
:1021800064071C25002C15D00B4D4C0162512C19F5
:1021900065689B041A09094B2B401343636063680D
:1021A0009B0B9B0363600368083149015918402366
:1021B0000B710025280030BDF0050020FF3F00F026
:1021C000094B19605968094A0A40802189020A436B
:1021D0005A605A68920B92035A6002684021822327
:1021E0005B00D15400207047F0050020FF3F00F055
:1021F0000268117802230B43137002689378022B54
:10220000FCD07047F0B55F4656464D464446F0B4A4
:1022100083B0CB4B1F683D682B78DB0900D15AE1B6
:102220002B8C9BB2002B00D1DBE0288C80B2C54BFD
:102230009847041E1F2C00D9D3E0030008335B012C
:10224000ED18ED79EDB2AB0751D0BF4A01238340C1
:10225000116899431160030008335B013A689446A2
:1022600063440322DA713B18AE331B78DB073ED59B
:10227000B64B18703A68030008335B019B5C9B0700
:102280009B0F012B10D14201B14B9B185A6892044D
:10229000920CAE494A805A681201920C8A805A68A0
:1022A000920B92035A601AE04201A94B9B185A689C
:1022B0001201920C90B2A5494A805A689204920C7D
:1022C0008A805968A34A0A405A60002807D16301EE
:1022D0009F4AD3185B689B049B0C9C4A5380984B85
:1022E0001868A31C1B01C3185B68984998476B07C3
:1022F0000ED5954A0123A340116899431160904B74
:102300001B681A68230008335B01D3180422DA71B2
:102310002B0721D58C4A0123A340116899431160F2
:10232000874B1868230008335B01026894466344B6
:102330000822DA710319AE331B789B070CD5834949
:102340000C706301824AD318DA891F2313404B7043
:102350002301C3189B6A9847EB0622D57A4A0123CA
:10236000A340116899431160754B18682300083326
:102370005B010268944663441022DA710319AE339C
:102380001B785B070DD5714A147063017049CB1837
:102390005B681B019B0C53802301C318DB6A00217F
:1023A0009847AB0600D4F2E1674A0123A3401168C5
:1023B00099431160624B1868230008335B0102687F
:1023C000944663442022DA710319AE331B781B074D
:1023D00000D4DCE15D490C7024010419236B98479B
:1023E000D5E1AC8BA4B2630708D50423AB83A1333A
:1023F000FB5CDB0702D57B683800984723070DD5C7
:102400000022514B1A604E4B1868082302689383D0
:102410009D33C35C9B0701D58368984763060AD543
:10242000474B18684023026893836533C35CDB061F
:1024300001D543699847A3060AD5414B1868202364
:10244000026893838533C35C1B0701D503699847F2
:10245000E3060AD53A4B1868102302689383953334
:10246000C35C5B0701D5C368984723060DD50022DE
:10247000354B1A60324B18688023026893832533EA
:10248000C35C9B0601D583699847E3050ED50022FE
:102490002D4B1A602A4B186880235B0002689383D7
:1024A0005B3BC35C5B0601D5C3699847A30500D4B9
:1024B0006DE10022244B1A60214B186880239B0099
:1024C000026893835C3BFF3BC35C7F2B00D85EE1DB
:1024D000036A98475BE12E8CB6B2002E40D1AE8BDA
:1024E000B6B2AB235B00FD5A3540023BFB5A1D40A0
:1024F0000024194F124B994698466300DB5B334228
:1025000003D04A461268126893832B4213D0062CDC
:1025100007D10F4B1B891A0980235B0013400F4A18
:10252000136023002E339B00424612689B580B49D0
:102530004246106898470134072CDED127E1C04697
:102540000403002041370000F8020020F0020020C0
:10255000F0050020FF3F00F010380000EC020020E2
:102560003C005934FF340023012294465F329146E7
:10257000503A92460D3A9346B8462F00D8B201938E
:1025800032001A416146114200D1FBE01A000832C4
:102590005201BA18D279D2B2217A25782940114055
:1025A0004D4615422AD03D0047465B01ED180823F1
:1025B000FF33EB5C5B0609D540220823FF33EA5466
:1025C000883BFF3B0343754A93710AE00823FF33BE
:1025D000EB5C9B0605D520220823FF33EA546F4BA2
:1025E000987160230B4200D1D1E0019B1B01FB18C5
:1025F000E0331B68694938009847C8E055461542E2
:102600001FD03D004746019A130008335B01ED18C7
:102610001023EB71BB186133FF331B78DB0600D44A
:10262000B5E0100053015E4AD3185B689B049B0C15
:102630005A490B800301FB18DC331B68404698475E
:10264000A5E05D4615423FD03D00474680465B0110
:10265000ED180823FF33EB5C9B0712D502220823F9
:10266000FF33EA544D4A883BFF3B03439371019B80
:102670005B014B48C31810335B689B049B0C538071
:1026800017E00823FF33EB5CDB0712D50122082398
:10269000FF33EA54414843468371019B5A01404B42
:1026A0009B185A689204920C02805B681B019B0C79
:1026B00083808B076BD0019B0D331B01FB185B687C
:1026C00036493800984762E00C2515425AD03D0043
:1026D000474680465B01ED180823FF33EB5C1B0780
:1026E00021D508220823FF33EA54019843012C4ADC
:1026F000D3189B7E9B0706D54201294B9B189A7ED7
:10270000022082439A7680235B4242461343234A47
:102710009371019B08335B013A6894466344DB790B
:102720009B0723D533E00823FF33EB5C5B071DD504
:1027300004220823FF33EA5401984301184AD318AE
:102740009B7A9B0706D54201154B9B189A7A02206B
:1027500082439A72114B42469A71019B08335B0186
:102760003A6894466344DB79DB0710D40C230B42B0
:102770000DD0019B1B01FB18D8331B68074938009B
:10278000984704E001330134082B00D0F6E603B08B
:102790003CBC90469946A246AB46F0BDFC020020E8
:1027A000F005002000230370013343700322827080
:1027B000C3707047F0B54F464646C0B483B00400BE
:1027C0000D0016000023644A1360644A1060216003
:1027D0006348826901210A43826101AF7B70B9704D
:1027E000FB70063399463B70390018205D4B9846C4
:1027F00098474B463B7039001920C047B3786A466A
:10280000137069460420584B98470420574B98474B
:102810002A78012313432B70AB78DB07FCD4544B8D
:102820001B689B03DB0E1F2B00D11A3B298D9A01DD
:10283000504B0B4013432B854D4B1B685B02DB0E4B
:102840001F2B00D1023B2A8D1F218A4313432B8566
:10285000474B1B689B015B0F072B00D1043B298D65
:102860001A03454B0B4013432B8532782B78D2014A
:102870007F210B4013432B7072782B787E390A40EE
:10288000920003318B4313432B703C4B6B62F37804
:10289000012B05D12268138908318B43138108E08D
:1028A000002B06D121680B890C2293430422134389
:1028B0000B818022520000213048314B9847221D65
:1028C00023002433002102C29342FCD12100A43111
:1028D00000221A605A609A60DA6010338B42F8D195
:1028E0000023A422A3540132A3542300A6332100C1
:1028F000AE3100221A701A7201339942FAD12200C5
:10290000B8322300D433002102C29A42FCD1210004
:102910005531FF3100221A605A609A60DA60103334
:102920008B42F8D10023AA225200A3520232A352B2
:1029300023005933FF336134FF3400221A701A72B6
:1029400001339C42FAD140220E4B1A60002003B0A2
:102950000CBC90469946F0BDF8020020040300200C
:1029600000040040D9320000DD3100006D3100006C
:102970001C6080003FF8FFFFFF8FFFFFF005002085
:10298000DF37000000E100E000B583B00322002142
:1029900001A8054B984701A91620044B9847044B02
:1029A000984703B000BDC046DF370000812B000010
:1029B000A508000030B583B001AC0322002120003F
:1029C000094B98470123237021002420074DA84775
:1029D00021000320A847064B1A00803210215161C4
:1029E00008225A6103B030BDDF370000812B0000A0
:1029F0000028004070B582B001AC03220021200005
:102A00000B4B98470126267021002020094DA8472E
:102A100021003F20A84721003E20A847064B9E6189
:102A2000802212069A618022D2059A6102B070BD9E
:102A3000DF370000812B00008028004030B583B0D4
:102A400001AC032200212000234B9847012323706F
:102A500021000720214DA84721000620A84721007A
:102A60002920A84721002820A84721000920A8479D
:102A700021000820A84721000B20A84721000A2098
:102A8000A84721002D20A84721002C20A84721007D
:102A90002B20A84721002A20A847114B80225A61E9
:102AA000403A5A611A0080328020800050618021B3
:102AB00049005161586159618020000158618021AD
:102AC000C900596180239B01536180235B015361DD
:102AD0005061516103B030BDDF370000812B000031
:102AE0000028004010B582B001AC03220021200074
:102AF000044B98470123637021001B20024B984729
:102B000002B010BDDF370000812B00000C4B1B68AA
:102B1000002B10D1EFF31083002B09D172B6BFF355
:102B20005F8F0022074B1A700132074B1A7002E0C8
:102B30000022054B1A70024A136801331360704774
:102B400008030020F40000200C030020084B1A6842
:102B5000013A1A601B68002B09D1064B1B78002B29
:102B600005D00122044B1A70BFF35F8F62B6704725
:102B7000080300200C030020F40000207047C0462A
:102B800000B583B001AB80221A700A785A704A7877
:102B90009A708A78DA701900014B984703B000BD2B
:102BA000D932000010B5082803D880001C4B1B58F0
:102BB0009F46002032E01B4B18692FE01A4B187D0E
:102BC0000007800F0130194B584327E0154B586917
:102BD00024E0144B1B68022018401FD012498022A9
:102BE0005200CB681342FCD00E4B1B685B0714D518
:102BF00000200F4B98470B4B9B681B041B0C584342
:102C00000CE02823084AD35C00209B0706D5054B1F
:102C1000D86803E08020000200E0064810BDC046EE
:102C20002438000010030020000C004000093D0083
:102C300001320000006CDC02F0B5474680B40100B0
:102C4000284B1B8A9C465A05520F43780F241C4080
:102C5000067873425E41F6B283781500002B15D1D9
:102C600040680025204FB84210D901351F4FB842A7
:102C70000CD901351E4FB84208D901351D4FB84255
:102C800004D915001C4A904200D804254F7A0A7ACC
:102C900090464968194A11610122B6000421604634
:102CA0008843010031434046104080014026B14333
:102CB000014338001040C0014036B14301432D02AA
:102CC0000F48014029431340DA020E4B0B401343D7
:102CD00024031B051B0D2343024A138204BC9046A8
:102CE000F0BDC046000C004080841E0000093D007D
:102CF00000127A000024F4000048E80110030020CC
:102D0000FFF8FFFFFFF7FFFFF8B50400C668037D7B
:102D1000012B06D1018A013149003000294B984727
:102D20000600A36818013100264B98470F2707407B
:102D300000092378DA0163789B011343DBB2224A4E
:102D4000282153543904431E1B051B0D0B43D3622A
:102D50001500382104226B5C1342FCD1A1780903D1
:102D6000E378DB00194323799B001943A37C0322FA
:102D7000944613401943258A2D04144A2B0013400E
:102D80001943E37C1B02E022D20013401943227D49
:102D90001201302313400B430B4A1363637D6146DA
:102DA0000B40313153541500043108226B5C13423F
:102DB000FCD10001C7197E43637D0433DE40044B20
:102DC000DE60F8BD55340000000C00400000FF0735
:102DD00010030020082803D88000294B1B589F4669
:102DE00017204BE0274A117D02230B431375002067
:102DF00044E0254A916902230B43936100203DE0A2
:102E0000204A118A02230B431382002036E01E4A17
:102E1000516902230B43536100202FE01B490B68CB
:102E2000022213430B60174B1A831900FE32CB6842
:102E30001342FCD0154A9168124B19625268DA614C
:102E400000221A8319000132FF32CB681342FCD0F2
:102E50000E4B1B689BB20B4A138300200EE00949FE
:102E60002822885C022303438B5408003821263A29
:102E7000435C1342FCD1002000E000207047C046B4
:102E800048380000000C00400010004010030020F3
:102E9000F0B58DB080225200474B9A60FD3A474B07
:102EA0009A60474A53681E218B4353608023DB0599
:102EB0009B78022B0FD08023DB059B785BB2002B25
:102EC00009DB8023DB0501229A7101329A701A0016
:102ED0009379002BFCD009A800240470012585708B
:102EE000384E4660047245720F234370364B984744
:102EF0000020364FB847304B1A7D802149420A43A3
:102F00001A751A7DC0318A431A75314B984703A848
:102F10008470C47004712F4B836005824475C4743F
:102F200084740470012343700375C6602A4B98476C
:102F30000820B84720483C210322435C1340032B60
:102F4000FBD11D4928228B5C8020404203438B54D7
:102F5000224C0123A37163712371019300236A46FC
:102F60005370137253721370694600201C4B9847BC
:102F700000201C4B984700201B4B98472179C9B271
:102F80001A4B98470F4B984214D88023DB059B7847
:102F9000002B0FD08023DB059B785BB2002B09DB75
:102FA0008023DB0501229A7100229A701A0093791E
:102FB000002BFCD00DB0F0BD000C00400014004010
:102FC00000400041001BB700392C0000D52D000047
:102FD000F12F0000006CDC02092D0000000400400D
:102FE00015300000C13000000131000055340000F0
:102FF000064A516940230B4353610122044B1A7066
:1030000019000B781342FCD17047C0460004004001
:103010000018004070B505000C784B78002B02D0EA
:103020008023DB001C434B7A002B02D080231B0142
:103030001C434A68012A17D9531E1A420FD1022A8B
:1030400006D90223002001305B009A42FBD800E041
:10305000002080235B011C430004044304E01204AD
:1030600080239B001A4314430B7A002B02D0802349
:103070009B011C430426AE400D490E4A4B68134089
:103080001E42FBD10C4B9847AD00094B9C46654452
:10309000286A80235B001840204328626146054A65
:1030A0004B6813401E42FBD1044B984770BDC0468D
:1030B00000180040FC0700000D2B00004D2B000005
:1030C00010B504000422824009480A4943680B40B5
:1030D0001A42FBD1084B9847A400054B9C46644418
:1030E000236A8022520013432362044B984710BD89
:1030F00000180040FC0700000D2B00004D2B0000C5
:10310000F8B50400042282401248134943680B407A
:103110001A42FBD1114B98470E4F0834A400E059D6
:103120000007000F0E4B98470600E559ED04ED0F20
:10313000E459240C0B4B9847002D07D1012C07D9DB
:1031400021003000084B9847060001E00134E640BA
:103150003000F8BD00180040FC0700000D2B0000F7
:10316000A52B00004D2B00005534000010B50400C5
:10317000094B9847A000094B9C4660448022815827
:1031800040230B4383508021403A43581A42FCD0DD
:10319000034B984710BDC0460D2B0000001800409F
:1031A0004D2B000010B50400094B9847A000094BB7
:1031B0009C4660448022835840218B438350403199
:1031C000403A43581A42FCD1034B984710BDC046C1
:1031D0000D2B0000001800404D2B000070B50400BE
:1031E0000D00054B98472B780F2213402034A40084
:1031F000024AA35070BDC046A5310000001800402F
:1032000010B50400064B98472034A400054BE45841
:103210002407240F044B98472000044B984710BD07
:103220000D2B0000001800404D2B00000131000064
:1032300030B5D378002B1ED11378802B04D01B0619
:1032400080246402234300E0002354780225AC4329
:103250000AD19478002C03D18024A402234302E0F5
:10326000C024E402234341605478013C012C12D86D
:10327000184C23400FE041600B041B0CA024E40514
:10328000234383620B0CD024240623438362D37828
:10329000002B18D01CE00C04240CA025ED052C43B9
:1032A0001C4384620C0CD0252D062C431C438462E5
:1032B000D478002C0CD15B0305D59378012B01D178
:1032C000816100E041615378013B012B00D88160AE
:1032D00030BDC046FFFFFBFF10B503000A00C10967
:1032E0000020002904D15809C00105498C466044DA
:1032F0001F210B401E399940024B984710BDC04614
:1033000000280040313200007047C04610B5054B20
:103310009847054B9847054B9847054B9847054BF1
:10332000984710BD912E00007D2B0000093300004E
:10333000010E000009330000FEE7C04610B51D4B2A
:103340001D4A9A4203D01D4B1A4A9A4204D31C4B81
:103350001C4A9A4210D31EE01B4A184B03339B1A97
:103360009B0801339B000022124813498C5884505B
:1033700004329A42FAD1EAE7144A114B03339B1AFA
:103380009B0801339B0000220E4800211418216085
:1033900004329A42FAD10E4AFF210E4B8B439360BE
:1033A0000D4A516880230B4353600C4B98470C4BDC
:1033B0009847FEE7000000208C380000F80000204D
:1033C000F0060020F800002004000020FC0000208F
:1033D00000ED00E0000000000040004181370000E7
:1033E0001134000010B5054B9847054B9847054B25
:1033F0009847054B9847054B984710BD3D2A00005C
:10340000E52A0000F529000089290000B5290000FF
:1034100010B50A4B98470A4B98470122094B1A707E
:10342000BFF35F8F62B67F32074BDA614120074BF3
:103430009847074A80239B00D361FDE70D330000C6
:10344000E5330000F40000200028004001070000E0
:1034500080280040002243088B4274D303098B422A
:103460005FD3030A8B4244D3030B8B4228D3030C54
:103470008B420DD3FF22090212BA030C8B4202D3F6
:103480001212090265D0030B8B4219D300E0090A1E
:10349000C30B8B4201D3CB03C01A5241830B8B4227
:1034A00001D38B03C01A5241430B8B4201D34B0310
:1034B000C01A5241030B8B4201D30B03C01A524175
:1034C000C30A8B4201D3CB02C01A5241830A8B42FA
:1034D00001D38B02C01A5241430A8B4201D34B02E3
:1034E000C01A5241030A8B4201D30B02C01A524147
:1034F000CDD2C3098B4201D3CB01C01A52418309FB
:103500008B4201D38B01C01A524143098B4201D334
:103510004B01C01A524103098B4201D30B01C01A5F
:103520005241C3088B4201D3CB00C01A52418308D9
:103530008B4201D38B00C01A524143088B4201D306
:103540004B00C01A5241411A00D201465241104666
:103550007047FFE701B5002000F0F0F802BDC0465B
:103560000029F7D076E7704703460B437FD400224B
:1035700043088B4274D303098B425FD3030A8B4207
:1035800044D3030B8B4228D3030C8B420DD3FF2271
:10359000090212BA030C8B4202D31212090265D03F
:1035A000030B8B4219D300E0090AC30B8B4201D3F2
:1035B000CB03C01A5241830B8B4201D38B03C01A39
:1035C0005241430B8B4201D34B03C01A5241030BB0
:1035D0008B4201D30B03C01A5241C30A8B4201D361
:1035E000CB02C01A5241830A8B4201D38B02C01A0C
:1035F0005241430A8B4201D34B02C01A5241030A83
:103600008B4201D30B02C01A5241CDD2C3098B4267
:1036100001D3CB01C01A524183098B4201D38B01E4
:10362000C01A524143098B4201D34B01C01A524187
:1036300003098B4201D30B01C01A5241C3088B42CC
:1036400001D3CB00C01A524183088B4201D38B00B7
:10365000C01A524143088B4201D34B00C01A524159
:10366000411A00D201465241104670475DE0CA0F30
:1036700000D04942031000D34042534000229C46F0
:1036800003098B422DD3030A8B4212D3FC228901FA
:1036900012BA030A8B420CD3890192118B4208D3D0
:1036A000890192118B4204D389013AD0921100E032
:1036B0008909C3098B4201D3CB01C01A5241830946
:1036C0008B4201D38B01C01A524143098B4201D373
:1036D0004B01C01A524103098B4201D30B01C01A9E
:1036E0005241C3088B4201D3CB00C01A5241830818
:1036F0008B4201D38B00C01A5241D9D243088B426E
:1037000001D34B00C01A5241411A00D20146634610
:1037100052415B10104601D34042002B00D5494274
:10372000704763465B1000D3404201B5002000F0B3
:1037300005F802BD0029F8D016E770477047C0466B
:10374000414208401C2101231B04984201D3000C74
:1037500010391B0A984201D3000A08391B09984204
:1037600001D30009043902A2105C401A7047C04618
:103770001B1C1D1D1E1E1E1E1F1F1F1F1F1F1F1F68
:103780000E4B70B500251E000D4CE41AA410A54286
:1037900004D0AB00F35898470135F8E700F066F81D
:1037A000084B00251E00084CE41AA410A54204D0C2
:1037B000AB00F35898470135F8E770BD7838000042
:1037C00078380000783800007C380000002310B5FD
:1037D0009A4203D0CC5CC4540133F9E710BD030016
:1037E0008218934202D019700133FAE77047000043
:1037F00031322E2E2E45460000010101D41D00005D
:10380000E21D0000821E0000EA1E00004E1F0000A4
:1038100004000800700080000100000100020000A8
:10382000030C1060B62B0000B22B0000B22B00007E
:10383000142C0000142C0000CC2B0000BC2B00002A
:10384000D22B0000022C0000002E0000E02D000012
:10385000E02D00007A2E0000F22D00000E2E000058
:10386000E42D00001C2E00005E2E0000F8B5C046BE
:10387000F8BC08BC9E467047DD000000F8B5C046A5
:0C388000F8BC08BC9E467047B500000074
:10388C00CD040000750100009101000095010000BD
:10389C00A103000015010000650100009901000062
:1038AC009501000000000000050F0C00010710023C
:1038BC0002000000500000204800002028000020DA
:1038CC0014000020000000206400002040000020B4
:1038DC001201010202000040EB030424000101026A
:1038EC0003010000090243000201008032090400B8
:1038FC00000102020100052400100104240202054B
:10390C002406000105240103010705830340001070
:10391C0009040100020A00000007058102400000B2
:10392C00070502024000000050726F64756374203A
:10393C006E616D65000000004D616E7566616374AB
:10394C00757265206E616D6500000000000300005B
:10395C00000000000000000000000000000000005B
:10396C00000000000000000000000000000000004B
:08397C0004030904010000002E
:040000030000333D89
:00000001FF
