S01300005553425F4558414D504C452E73726563BC
S1130000802700202D0100002901000029010000A3
S113001000000000000000000000000000000000DC
S113002000000000000000000000000029010000A2
S11300300000000000000000290100002901000068
S11300402901000029010000290100002901000004
S11300502901000081020000A10200002901000022
S113006029010000290100002901000029010000E4
S113007029010000290100002901000029010000D4
S113008029010000290100002901000029010000C4
S113009029010000290100002901000029010000B4
S11300A029010000290100002901000029010000A4
S11300B00000000010B5064C2378002B07D1054B37
S11300C0002B02D0044800E000BF0123237010BDC0
S11300D06800002000000000282F0000084B10B525
S11300E0002B03D00749084800E000BF0748036815
S11300F0002B00D110BD064B002BFBD09847F9E72D
S1130100000000006C000020282F0000282F0000B1
S11301100000000010B5024B9847024B984710BDF1
S1130120C1020000F92C0000FEE7C04610B51D4BCB
S11301301D4A9A4203D01D4B1A4A9A4204D31C4BBF
S11301401C4A9A4210D31EE01B4A184B03339B1AD5
S11301509B0801339B000022124813498C58845099
S113016004329A42FAD1EAE7144A114B03339B1A38
S11301709B0801339B0000220E48002114182160C3
S113018004329A42FAD10E4AFF210E4B8B439360FC
S11301900D4A516880230B4353600C4B98470C4B1A
S11301A09847FEE700000020282F00006800002088
S11301B07C07002068000020040000206C00002060
S11301C000ED00E00000000000400041052D0000AB
S11301D0252C0000F8B580246404022221000020AC
S11301E0104FB8470022210000200F4EB0470022D4
S11301F0182100200D4DA8470D4918200D4CA0478B
S11302000222802189040020B84700228021890429
S11302100020B047002219210020A84706491920D0
S1130220A047F8BD290C0000CD0C0000ED0C000027
S113023006001800690D00000600190041219023F2
S1130240064AD150064B1A69802149010A431A61B2
S1130250996901220A439A617047C0460018004018
S11302600004004010B5034B9847034B9847034BD9
S1130270984710BD3D02000059050000D50100005B
S113028010B5054B5B69002B03D058681B68984771
S113029001E0024B984710BD08070020A5090000A3
S11302A010B5054B9B69002B03D058681B68984711
S11302B001E0024B984710BD08070020A509000083
S11302C010B5024B9847024B984710BDA90900008E
S11302D065020000EFF31083036072B6BFF35F8F13
S11302E07047C046BFF35F8F036883F3108870477D
S11302F030B50F4B5978884214D01A0000230F25CB
S1130300054003E02032517881420DD01478002C4E
S113031001D18D420AD001335BB20D2BF2D1012001
S1130320404204E0002002E0180000E0180030BD64
S1130330840000200020704770B504000D00094BB4
S113034098474301084AD3189A780023032A07D10F
S11303504001054B181883692900200098470300C1
S1130360180070BDF102000084000020F0B585B0D3
S113037005000F001600504B98470400002F57D17A
S11303804E4B420199180020C870D35C002B49D110
S11303908B78032B3AD10D7B7F3085430B000C33D4
S11303A01A004878CB6901219847002817D06201C8
S11303B0424B9B1805229A70033ADA70002D04D040
S11303C064013E4B1C19607805E064013B4B1C1929
S11303D06078802318430121394B98476AE064010F
S11303E0364B1C190423A3706378002201920292F5
S11303F0002D02D18032134301E00F22134001A8E3
S11304000372012343722F4B984753E02B4B640133
S11304101A190C321C1960780021E36998470223E9
S1130420A37047E06301254AD31801229A7039E08A
S1130430012F14D1214B420199180220C870D35CBA
S1130440002B06D102228A70002128001C4B9847F9
S113045028E06301194AD31805229A7022E0022F7A
S113046010D1164B420199180420C870D35C002B9C
S113047002D102238B701DE06301104AD3180122BC
S11304809A700FE0032F07D142010C4B9B180022F6
S11304909A700532DA7005E04201084B9B18062277
S11304A09A70DA706401054B1C19E178E369320033
S11304B02800984705B0F0BDF10200008400002038
S11304C0211D0000F51E0000F0B5474680B405006C
S11304D01D4B9847060043011C4CE4180C342100C2
S11304E028001B4B9847C0B2082808D001212800D7
S11304F0184CA047802028430121A04720E0002178
S11305002800144B9846984780272F430021380031
S1130510C04772010D4B9B1801229A705B69210040
S11305202800984700280BD17601084B9E19052313
S1130530B37001212800074CA04701213800A047CF
S113054004BC9046F0BDC046F102000084000020C7
S1130550891E0000211D000010B5144B9847002887
S113056022DB134CD022520000212000114B98476B
S1130570631C2000A230FF30FF240F4A1C701900B6
S113058013310A6004310A6004310A602033834263
S1130590F4D10A4900200A4CA0470A490120A04787
S11305A009490220A047002010BDC046E116000002
S11305B084000020632D000035030000C9040000FE
S11305C035210000390300006D03000010B5014B14
S11305D0984710BD1121000010B5014B984710BD7C
S11305E0A917000010B5014B984710BDED17000086
S11305F010B5014B984710BDFD170000F8B5060073
S11306000D0017000F4B9847002814DAFF200D4BFC
S11306109847041E12DB3A00290030000A4B984721
S113062000280DDB094B64011A195670032215408A
S1130630E554002004E01420404201E0152040422B
S1130640F8BDC046F1020000091800008400002033
S113065010B582B200210020014B984710BDC0465E
S1130660FD05000070B50500064B9847041E07DB26
S11306702800054B98476401044B1C19FF23637041
S113068070BDC046F102000055190000840000202E
S113069070B504000D4B9847051E14DB43010C4A4A
S11306A09A5C53425A41013243010949CB189A706A
S11306B02000084B9847002807DA6D01044A5519B1
S11306C00022AA7001E01220404270BDF102000035
S11306D084000020291A0000F0B557464E464546CE
S11306E0E0B486B00400077A3800434B984705000D
S11306F0637A98466668002868DB04A83F4B9847ED
S11307006B013F4AD3189A7817236B441A701B78ED
S1130710012B10D13A4B99466B019A464B465344F0
S113072003229A7004A8374B98474B465246D35C31
S1130730002B15D035E004A8324B984717236B449F
S11307401B78DBB2052B44D0062B03D00120002BF1
S11307504BD102E01020404247E01320404244E0E5
S11307606A01274B9B18DA7C12029B7C9A1892B27E
S1130770002A07D16D01224B5D190423AB700026BA
S1130780033B28E06D011E4B5D192B7B7F218B43BE
S1130790964200D91600002B22D096429B415B4220
S11307A019E0227A4346591E8B41DBB2216801913C
S11307B00296FF0902D080210A4301E00F210A407A
S11307C001A802724372104B98470EE01220404277
S11307D00BE0022009E0227A216801910296EAE7FF
S11307E0227A216801910296E8E706B01CBC904683
S11307F09946A246F0BDC046F1020000D5020000B1
S113080084000020E5020000F51E000070B504001D
S113081000291ED1154B9847051E23DB4301144ABA
S1130820D3189B780020052B1ED100212000114BEA
S11308309847002818DB6D010D4B5D190123AB703F
S11308400233EB70EB69002203212000984700205B
S11308500AE0012902D1074B984705E00221054B24
S1130860984701E01220404270BDC046F1020000EA
S113087084000020211D000070B50D0014000F4BF2
S113088098470300002C00D10D4C002B14DB012DE4
S113089009D0002D02D0022D0AD00DE04001094BF1
S11308A01818446108E04001064B1818846103E0FD
S11308B04001044B1818C46170BDC046F102000029
S11308C03503000084000020002800D100BE7047DA
S11308D00368002B09D08B4202D108E0994208D06A
S11308E01B68002BFAD1002004E0002002E0012064
S11308F000E001207047C04670B505000E00046892
S11309000A4B984701235840C0B259220849094B61
S113091098472B68002B03D12E60336005E01C0040
S11309202368002BFBD12660336070BDD108000022
S1130930742D0000C90800001F2318401E3B83408B
S1130940802201498B50704700E100E01F231840CA
S11309501E3B8340C022520001498B507047C04661
S113096000E100E01F2318401E3B8340014A13604E
S11309707047C04600E100E070B504000D0000209F
S11309801C23A3424041C0B28C220349034B984725
S1130990A400034BE55070BD942D0000C90800006D
S11309A008070020FEE7C04610B50C4B5A685A6091
S11309B002200B4B98470B4B98470B4B98470B4B1C
S11309C098470B4B98470B4B98470B4A1369802168
S11309D009010B431361094B984710BD00400041C6
S11309E0F90B0000490B0000610B0000350B0000FF
S11309F01D0B0000810B000000040040550A00009C
S1130A0010B5124A118C0F230B405800C0188000F7
S1130A100F4908183F2153540F31525CD20706D5B1
S1130A2001244E2209498C54436898470DE04E2214
S1130A3006498A5C920708D502244E228C545A0037
S1130A40D3189B00024A9B58984710BD00040044E9
S1130A5024020020F8B5274B1A8802218A431A8001
S1130A601A8802318A431A803C31585C01220243BD
S1130A705A54002119805A7B012082435A73002260
S1130A809A7359611C4A5A631C4A9A631C481C0095
S1130A903F239C4640250127174ECBB26246A35400
S1130AA0625D03789B093B409B01AA431343635552
S1130AB04368636402890B019A5301310C30102995
S1130AC0EBD1104C104B23640A4D656405200F4B89
S1130AD0984705200E4B98472100403105200D4BC7
S1130AE0984705200C4B98472A88022313432B80F0
S1130AF00020F8BD00040044000000300001003074
S1130B00B82D0000A4020020010A000039090000E9
S1130B104D0900007909000065090000024B034AF1
S1130B201A62034A5A627047001800400601010025
S1130B3007010100034B08229A71043A5A71033ADF
S1130B401A71704700040040044BD969F82252011D
S1130B500A40DA6100221A617047C0460010004062
S1130B608E22064B1A7519007E3ACB681A42FCD0C5
S1130B70024A117D80230B4313757047000C00401B
S1130B80194B1B68980E0222184B1A831900FE3267
S1130B90CB681342FCD0164A144B1A621900802207
S1130BA05200CB681342FCD083028022920013438C
S1130BB00E4AD36193235B001383138B5B0707D522
S1130BC0110090221201CB6813409342FBD105E03F
S1130BD0064980225200CB681342FCD0054A536870
S1130BE0002BFCD17047C04620608000000C004000
S1130BF080BB0104001800408023DB05FF229A71AA
S1130C009A7803231340984207D08022D205937820
S1130C1003218B430840184390708022D2059379B6
S1130C20002BFCD07047C04610B5012A18D0002A0A
S1130C3002D0022A26D039E0C001C023DB05C31844
S1130C4059600B041B0C8022D20513431A4A9446A4
S1130C5060448362090CC0231B06194381622AE0A5
S1130C60C001C023DB05C31859600B041B0C134AD5
S1130C701343114A944660448362090C104B194390
S1130C80816218E0C001C023DB05C31899600B041E
S1130C901B0C8022D2051343074A944660448362A6
S1130CA0090CC0231B061943816204E04D22054947
S1130CB00020054B984710BD00280040000002406A
S1130CC0000002C0782E0000C9080000002A06D0E7
S1130CD0C001C023DB059C466044816105E0C0017E
S1130CE0C023DB059C4660444161704710B5012A6E
S1130CF00ED0002A02D0022A1AD029E0C301C81853
S1130D00164B9C466044037804229343037024E00A
S1130D1001238B40C001C022D205841863600818E7
S1130D200E4A81180878042202430A70A36114E071
S1130D3001238B40C001C022D205841863600818C7
S1130D40064A81180878042202430A70636104E0A9
S1130D508F2203490020034B984710BD40280040D0
S1130D60782E0000C908000070B54209C0B21F23E4
S1130D7003401E004B1C0BD1FF231A40D201B318B1
S1130D80184A944663441A7802318A431A7027E059
S1130D90FF231340DA01B218124CA44662441478BB
S1130DA00125AC432C431470C2070DD57208D80139
S1130DB013180D4A9446634418780F22024009011F
S1130DC01143C9B219700BE07208DB01D318064A4B
S1130DD0944663441A780F208243014011431970EA
S1130DE070BDC046402800403028004070B5837C68
S1130DF00F221340C17C083A0A40012A0BD05A0141
S1130E001A498C4662441021D1715B01184A9446F8
S1130E106344197028E04A060FD5C27C40218A43F6
S1130E20C2745A018224E405A446624480258224C3
S1130E30640015550624FF341155C27C08218A43E9
S1130E40C2740C495A018C180025A572A5761300AA
S1130E50064CA44663446F24DC71054B9C466244F3
S1130E601470807C0B6F984770BDC0460001004130
S1130E7008010041EC0200200020704710B5837C7B
S1130E80FF2B0BD0C27C520608D5C27C4024A2435F
S1130E90C27482680248846F1800A04710BDC0461F
S1130EA0EC02002010B520228A40D2B2837C0F21AC
S1130EB00B405B0103498C4663441A700121024BC9
S1130EC0984710BD080100417D0E0000F0B583B0C5
S1130ED007000E001500847C0222164901A8164B57
S1130EE09847FF2C23D0FB7C5B0620D50F2323409F
S1130EF0002E06D05A0111498C466244802111719A
S1130F0005E05A010D498C4662444021517101AA01
S1130F10915D5A01094884466244D1715B01084AD3
S1130F2094466344197029003800064B984703B06F
S1130F30F0BDC046942E0000512D00000001004178
S1130F40080100417D0E000070B582B006000D005E
S1130F50837C0F241C4002223949043101A8394BF7
S1130F6098476301384AD318002D08D0220008326C
S1130F7052018221C905525C5206520F07E0220039
S1130F80083252018221C905515C07220A40F07CD3
S1130F9029015B18997AC9B2022A19D1CA0717D54F
S1130FA09A7A01218A439A7201AB5A5D63012749F7
S1130FB08C466344DA716401254B9C466444227078
S1130FC0691E8D41E9B204223000224B984734E077
S1130FD08A071FD59A7A02218A439A7201AB5A5D15
S1130FE063011A498C466344DA716401184B9C46C8
S1130FF06444227007230340012B1ED1F37C5B065B
S11310001BD5F17CC9098D4217D000223000114B49
S1131010984712E063005B191B010B4AD3180022A6
S11310209A7201AB5A5D630108498C466344DA71D4
S11310306401074B9C466444227002B070BDC046F4
S1131040942E0000512D0000EC020020000100410C
S113105008010041CD0E0000F0B5474680B40400FD
S11310600F00837C0F251D40002900D1B1E06B01E6
S11310705D4AD31858698004800C238A5B4A9342E2
S113108000D19BE0013B1AB2E37C07261E40002FEF
S113109005D06B0156498C4663440221D971A3687B
S11310A0C118A1606368994239D25B1A9BB2E27C91
S11310B0920613D5208A1A1C834200D9021C93B2CB
S11310C0984623689C4661444246E068494B9847E9
S11310D0E2686B014449CB181A610EE01A1C8020A7
S11310E08001834201D9444B1A8893B298462368FD
S11310F059186B013C4AD31819616B013A49CB1852
S113110010331900586843469A04930C820B9203D7
S11311101A434A604A68394B13404B603BE0E37C16
S1131120DB0610D5E37C10229343E3746A012E4B53
S11311309A1813005269920B92035A6159692F4A03
S11311400A405A6127E0012E06D16D012C4B9C46C2
S113115065444B232B7005E06D01294B9C46654487
S11311604A232B70218A0300134099420ED1E37C59
S113117040229343E374A07C1B4B5B6FA1689847A8
S113118000282DD1E27C40231343E3740021200086
S11311901C4B984724E0002F09D1012E01D04A228C
S11311A000E04E226B0118498C4663441A706D01AD
S11311B00F4B9C46654480236B7111E0E67C07234A
S11311C01E400A4A65E7E37C07261E40074A0020C2
S11311D065E7038A054A0020934200D052E7F2E70C
S11311E004BC9046F0BDC046EC020020FF030000A2
S11311F000010041512D0000902E0000FF3F00F03F
S1131200080100417D0E000009010041F8B55F4668
S113121056464D464446F0B404000F00837C0F2527
S11312201D4000290FD06A017F4B9B185A68120198
S1131230920C90465A689204920C9146038A7B4918
S11312408B4208D1C6E0038A784A934200D1D1E0A8
S1131250002291469046013B9EB24B4633409B464A
S1131260E37C07221A409246002F05D06B01704A96
S1131270944663440122DA71E37C9B060FD56368CC
S1131280002B0FD0A268216888189B1A1A1C9BB2E5
S11312905B4500D95A4692B2E168664B984762684A
S11312A0002A1BD1E37CDB0600D4A0E0E37C1022FF
S11312B0934320221343E3745B496B01E2685A5061
S11312C0228AC9184868920412095B4B03401343ED
S11312D04B604B689B0B9B034B6063E0002F0AD071
S11312E0238A5B4507D9E37C10229343E374A36804
S11312F04B44A3603BE0A36843441900A3609A42B3
S113130035D9D21A92B2E37C9B060AD5218A131CE2
S11313108A4200D90B1C9AB2E0686B0142495850CA
S113132016E0238A9A4205D980239B019A4208D861
S1131330B24308E09A4206D2E07C20230343E374DC
S113134001E080229201236859186B013648195034
S11313506B013549C918486892041209364B034099
S113136013434B604B689B0B9B034B601AE0534643
S1131370012B06D16B01314A944663442D221A7025
S113138005E06B012D4A9446634425221A70002D12
S113139003D16D01244BE268EA5000212000284B60
S11313A098473AE0002F0ED125225346012B05D150
S11313B06B011D4AD31800229A762D326B01214904
S11313C08C4663441A706D01194B9C466544402356
S11313D02B7122E09205930D9B46C37C07221A4091
S11313E09246124E42E7A3684344A360BFE7002F2E
S11313F00ED1F8E7C37C07221A40924600239B468D
S11314000A4E9946984637E7A3684344A360AEE77B
S1131410238A5B4500D966E7F6E73CBC90469946CB
S1131420A246AB46F8BDC046EC020020FF03000014
S113143000010041512D0000FF3F00F00801004170
S11314407D0E000009010041F0B5474680B40D4D02
S11314502C007C34A6239B009C4665440A4B98468A
S1131460FF27002603212000C047A774E674143424
S1131470AC42F7D1602200210248044B984704BCD7
S11314809046F0BDEC0200207D0E0000632D0000AC
S1131490F0B5474680B48223DB051E8CB6B2002E1D
S11314A000D088E01A009B8B128B13405A0707D593
S11314B004228223DB059A837E4B9B6E9847F5E0DA
S11314C09A0524D58223DB057B4A9A839A82923A31
S11314D0FF3A1A83774B1B891B071B0F032B08D07A
S11314E0744B1B8D1B071B0F0021032B0AD1023BDE
S11314F000E000235B016F4AD31819894904490DA0
S113150000221A816B4BDB6E03209847CEE01A064B
S113151009D580228223DB059A83664BDB6E00218A
S113152005209847C2E070221A421ED08223DB05B0
S11315309A839A82604A1A83604B1B8B5B0707D598
S11315405E4990221201CB6813409342FBD106E01E
S11315505A4980225200CB6813409342FBD1554B29
S1131560DB6E002102209847A0E01A0713D58223DE
S1131570DB050021802252009954F83A9A8368329C
S11315809A824D4A1A834E4B98474A4BDB6E002190
S1131590012098478AE0DB070DD58223DB05464A04
S11315A09A839A82923AFF3A1A83424BDB6E002165
S11315B0042098477AE03F4C7C3400253D4B984604
S11315C02000A37CFF2B6DD00F210B400E399940D6
S11315D00E4267D059013B4FBC466144C9795B0157
S11315E0394FBC4663441B780B405BD0A9004A19B1
S11315F0920042447832D27D510610D4DA0602D5E4
S1131600324B98474EE05A0603D50121304B984798
S113161048E09B0646D500212D4B984742E0D1096E
S113162020D0590603D50121294B98473AE01907E0
S113163003D50121274B984734E0990703D50121AD
S1131640254B98472EE007210A40012A2AD15A0740
S113165003D500211F4B984724E0DB0622D51B4B02
S113166098471FE0990603D50021194B984719E0C4
S1131670590703D50021174B984713E0D90703D521
S11316800121164B98470DE007210A40012A09D190
S11316901A0703D506390F4B984703E0DB0601D53B
S11316A00A4B9847013514341B2D89D104BC90464C
S11316B0F0BDC046EC02002001020000000C004016
S11316C0491400000001004109010041ED0D000032
S11316D0A50E0000490F0000591000000D12000073
S11316E010B58221C90501228B781342FCD18221D5
S11316F0C90503228B781342FCD18223DB051B78B6
S11317009B0742D48221C90501228B781342FCD164
S11317108222D205117801230B4313701100012298
S11317208B781342FCD11A4B1A4A9A66DA661A6706
S11317305A679A67184B9847184B1B68580B1F2217
S11317401040990C0A409B015B0F1F2800D11A38E6
S11317501F2A00D1023A072B00D1023B8001024329
S11317601B0313438222D2051385042313700849F3
S11317705162033B13810A4B0B6600234B666031B5
S11317800620084B9847002001E01120404210BD7C
S1131790EC020020790E0000491400001C60800057
S11317A0911400007909000010B58223DB059B78B1
S11317B09B0713D18223DB051B78DBB29A0704D481
S11317C0022213438222D20513700620054B984748
S11317D0054A8223DB051A83002001E011204042E0
S11317E010BDC046650900008D0200008222D205AA
S11317F0138901218B4313817047C046802318430A
S11318008223DB0598727047F0B5474680B40F25F4
S113181005407F2307009F43002D00D18AE02B0061
S1131820002F00D0AB1C1E00032319402B1E022BDB
S11318306ED8B400A419A400A046444CA44644465F
S113184064448E342478FF2C65D1002917D1002DEF
S113185003D0002F01D10235EDB2AC006519AD0003
S11318603A4C65198E352C78FF2C57D15C00E4185E
S1131870A400374D2C19A468002C60D151E0002F2E
S113188008D05C00E418A400314D2C19E468002C45
S11318901BD008E05C00E418A4002D4D2C19A468AA
S11318A0002C19D008E05C00E418A400284D2C1981
S11318B0648A944209DA37E05C00E418A400244DF9
S11318C02C19248A944207DA31E05C00E3189B0067
S11318D01F4CE318DF6805E05C00E3189B001C4C18
S11318E0E3189F68194DB3009C19A4002C1988347F
S11318F0276060359C19A4002C19A2852F3401316E
S113190021709B199B00EB182E331870002019E0EE
S11319101220404216E01420404213E014204042BA
S113192010E0132040420DE0132040420AE013204F
S1131930404207E0032319400026002379E7002FE3
S11319409FD1B9E704BC9046F0BDC046EC0200202C
S1131950942E000070B506000F2505407F2301007A
S11319609943002D0DD02B00002900D0AB1C022D73
S113197054D81C009800C3189B002948C0187C3018
S113198002E027487C300024A3001B199B00244A52
S1131990D3188E331B78FF2B40D04B1E9941C9B20C
S11319A00322204B9847A3001B199B001C4AD31801
S11319B07833DB7D07221340012B06D108367601EC
S11319C000228223DB05F25419E073B2002B0BDAF8
S11319D06D018223DB059C46654480225200AB5C8A
S11319E070218B43AB540AE076018223DB059C46CD
S11319F0664480225200B35C07218B43B354084AE7
S1131A006032A1000B199B00D3182F3300201870EB
S1131A100C19A40014192E34FF23237070BDC04682
S1131A20EC020020CD0E0000F0B50F2303407F220E
S1131A309043002B00D130E11A00002800D09A1CFA
S1131A40190008335B018224E4051C5DE4B2022919
S1131A5000D913E193009B189B00AD4DEB188E3316
S1131A601B78FF2B00D10CE12E004D01751993005A
S1131A709B189B00F3187833DB7D07263340012B3A
S1131A8075D17633234200D0FEE04C018223DB057E
S1131A909C466444112080235B00E05493009B180F
S1131AA098009B4B60331B189B8D9E0399483040D4
S1131AB08026B600B34200D9F8E0013EFF3EB342AF
S1131AC000D90BE1802B00D9F8E0402B00D90DE1BF
S1131AD0202B00D9FAE0102B00D90FE1F83E9E42EA
S1131AE0B64176423707384368609804830C36075A
S1131AF033436B610625FF354026665582277F00F8
S1131B008023E35582484901411800238B728B7668
S1131B1060339C46844491008B189B0063442E33AD
S1131B201B780F2423408C18A400041988342468DB
S1131B305B011C508A1892006244918DC01844685D
S1131B4089040909744A22400A4342604268920B9C
S1131B50920342608222D2059A18B021D15556557B
S1131B606E4A9446634410221A700020CEE0002886
S1131B7042D07023234200D089E0654E9300981828
S1131B80800030188830C0794007400E0443480173
S1131B908227FF05BC46604480277F00C455603619
S1131BA09A189200B218948DA3049A0C07238026E5
S1131BB0B600B44212D8013BBC420FD8013B802C82
S1131BC00CD8013B402C09D8013B202C06D8013B02
S1131BD0102C03D80633A3429B415B421B071343DB
S1131BE06B61802282235B00C2544901484B59181F
S1131BF000238B76002089E063074BD1444E930089
S1131C009818800030188830C0794007400F04438A
S1131C1048018227FF05BC46604480277F00C455E5
S1131C2060369A189200B218948DA203394B1A4068
S1131C3007238026B600B44212D8013BBC420FD819
S1131C40013B802C0CD8013B402C09D8013B202CB3
S1131C5006D8013B102C03D80633A3429B415B42B8
S1131C601B0713436B6040220623FF33C254490110
S1131C70274B591800238B72002047E01220404262
S1131C8044E01220404241E0142040423EE014204F
S1131C9040423BE01420404238E080235B00822233
S1131CA0D205D45CE4B200210022D3E6E026F60596
S1131CB0304368609B049B0C072618E7A026F605B2
S1131CC0304368609B049B0C052610E7C026B605CC
S1131CD0304368609B049B0C032608E7C026F60586
S1131CE0304368609B049B0C062600E78026F605BB
S1131CF0304368609B049B0C0426F8E68026B605F6
S1131D00304368609B049B0C0226F0E6F0BDC0469D
S1131D10EC02002000C0FF0FFF3F00F0090100416A
S1131D20F0B50F2202407F2398430400631E9C41B8
S1131D30E4B2002A06D01300002800D0931C022A23
S1131D4001D995E00023012922D11025A540EDB247
S1131D5049489A00D118890041188E3109780F2614
S1131D6031404E01454FBC46664475712025A5405F
S1131D70ECB24901424DAC4661440C70D3189B004F
S1131D80C3188833D97908220A43DA71002071E034
S1131D90002959D19A00D218920037498A188E32F4
S1131DA012780F210A4051018220C0058446614403
S1131DB0832040000E5C1025A54000202E4259D0FF
S1131DC0EDB20530FF300D54E438A040C5B25201E5
S1131DD02C4EB446624415700822FF328A5C0242DB
S1131DE009D00822FF328D54073AFF3AA240D2B2FA
S1131DF0822040000A549A00D21892001E48821889
S1131E007832D27D07200240012A11D10632FF32F6
S1131E10895C0020D63A11422CD19A00D3189B0039
S1131E20154AD3188833DA7908218A43DA7121E014
S1131E309A00D3189B00104AD3188833DA79082102
S1131E408A43DA71002015E09A00D3189B000A4AED
S1131E50D3188E331B780F2213405B01074A944634
S1131E6063449B791020A0401840431E984101E030
S1131E7012204042F0BDC046EC02002000010041A7
S1131E80090100410801004170B50D000F231840FD
S1131E904301164AD31819685B689B049E0C0228F8
S1131EA01AD8002D1BD040018223DB05C4188023DF
S1131EB05B00E35C112B15D10823FF33E35C0020A6
S1131EC0DB0611D508222800094B98471022082365
S1131ED0FF33E254300007E01220404204E01220B5
S1131EE0404201E01320404270BDC046EC02002095
S1131EF0512D0000F0B55F4656464D464446F0B4B9
S1131F0085B08046067A0F2232407F239E43002A02
S1131F1000D1D1E01300002E00D0931C1C007449A2
S1131F2060319800C518AD004D191C35C3189B00CD
S1131F30CB189B8D6F498B4203D105E06C4D7C35EA
S1131F4000245F1EBFB200E06A4F414649680F405B
S1131F50022A00D99CE042461268674882420ED9A0
S1131F6050180190654884460198604507D8920747
S1131F7005D1002E1ED18B4200D9A5E00CE0A300B0
S1131F801B199B005A4AD31888331B68002B00D1B5
S1131F9081E00123994612E0002F0ED0A3001B1903
S1131FA09B00534AD31888331B68002B76D0002338
S1131FB0994604E00023994601E000239946A300D2
S1131FC01B199B004A4AD3187833DB7D02201B0778
S1131FD000D585E003A84A4B9847A3001B199B0032
S1131FE0434AD3187833DB7D5B0604D503A8454BFD
S1131FF09847012074E0A3001B199B003C4A9246B9
S11320009A44882353449B46DA79402313435A461F
S1132010D37103A83B4B9847534642461268DA678C
S11320208033424652681A60043300221A60330037
S11320305A1E9341DA015B46DB797F210B40494606
S113204049011343202293430B435A46D371434619
S11320505B7A0022002B01D07A427A41A3001C193A
S1132060A400234B1B1988331201D9791020814312
S11320700A43DA71002E05D000212800224B98472C
S113208000202DE000212800204B9847002027E065
S11320901220404224E01320404221E0122040421A
S11320A01EE0132040421BE0424651688F05BF0DDD
S11320B00F4D7C3500244EE70D4B60339B8D0D494D
S11320C08B4200D03AE7EFE7A3001B199B00084AB4
S11320D0D31888331B68002BE3D0012399466EE79D
S11320E005B03CBC90469946A246AB46F0BDC046FE
S11320F0EC020020FF030000FFFFFF1FFF7F002012
S1132100D5020000E5020000591000000D12000085
S1132110002900D10549012802D1054BD96603E005
S1132120002801D1024B99667047C046790E000021
S1132130EC020020002900D10749002802D1074BF6
S1132140196708E0012802D1044B596703E002280B
S113215001D1024B99677047790E0000EC02002010
S1132160F0B583B006000C0015000B785A06920FE8
S1132170012A6DD10979627912020A433C4909782E
S1132180914203D03A494978914264D15BB2002B21
S113219012DA012D62D06378212B61D1A279E3791F
S11321A01B021343072B5ED1002307223049083159
S11321B03000304CA04758E0A279E3791B02134366
S11321C01F002D4B98476378202B02D0222B26D05A
S11321D036E0072F37D1002D06D100230722010056
S11321E03000244CA04740E0072201006846234BFE
S11321F098471F4B1B69002B05D06846984703007E
S11322000020002B31D01A4A1300009991606A46CD
S113221092889A816A4692799A73002025E0002375
S1132220002200210020134DA847114B5A69002AAF
S11322300CD0A378E078000218439047002014E003
S11322400D20404211E0012040420EE000200CE04D
S11322500A20404209E00A20404206E0002004E04F
S11322600D20404201E00120404203B0F0BDC046D1
S1132270440600202D270000E12A0000512D000013
S1132280F0B55F4656464D464446F0B483B016005A
S113229001295DD0002905D0022900D185E00D2057
S11322A0404299E0836898461068002800D17FE096
S11322B00193012343449B464B4F4C4B994604E006
S11322C0019B01330193002875D08278437908215A
S11322D08B43022B72D101998A460B789A4270D0B3
S11322E0FF2B71D10A7005227168414B9847041E77
S11322F01FD0A5786279120223799A1892B2E178F4
S11323002800B847002862D16BB2002B05DA534687
S11323109D702800354B984703E043461D71280003
S1132320C8473460207820187168324B9847041EDF
S1132330DFD1336818781818042271682C4B984739
S1132340019B5B45BCD101222B4B5A71002043E019
S11323508468002A05D013685B7908229343022B12
S113236038D12378FF2B08D0FF232370A078FF28CF
S113237003D0224B9847FF23A3706378FF2B08D028
S1132380FF236370E078FF2803D01C4B9847FF239A
S1132390E3702079FF2803D0184B9847FF2323715B
S11323A00022154B5A71002016E01B20404213E016
S11323B00A20404210E00A2040420DE00A20404238
S11323C00AE01220404207E01C20404204E01420AE
S11323D0404201E00A20404203B03CBC904699468A
S11323E0A246AB46F0BDC046FD05000091060000C4
S11323F0FD2A0000352B000044060020650600007D
S113240010B50A4B984701280CD80948094BC361F9
S113241000621830084B984708490120084B984738
S1132420002001E01120404210BDC046ED2A00000A
S11324304406002081220000852A000000000020BC
S1132440ED29000010B50400074B5B79002B07D081
S1132450054B187900230A002100044CA04701E031
S11324601120404210BDC046440600202D27000024
S113247010B50400074B5B79002B07D0054BD878C7
S113248001230A002100044CA04701E0112040422E
S113249010BDC046440600202D27000010B50128B9
S11324A00ED0002804D0022812D0032814D017E03C
S11324B00D4B18790A0002210C4B9847002011E0BB
S11324C0094BD8780A000221084B9847002009E0FC
S11324D0054B1961002005E0034B5961002001E020
S11324E00D20404210BDC04644060020790800007B
S11324F0014B58797047C0464406002010B5064B7E
S11325001C69002C07D00022012120006368984731
S11325102468002CF7D110BD6806002070B50600B1
S11325200D00074BDC68002C08D06368002B02D038
S11325302900300098472468002CF6D170BDC046AD
S113254068060020F8B507000E0015000C4B9C68C7
S1132550002C0FD06368002B07D02A00310038000C
S11325609847002808D00A3008D12468002CF1D1FB
S1132570002004E0002002E0012000E00020F8BD7B
S11325806806002010B5064B5C68002C06D0636812
S1132590002B00D098472468002CF8D110BDC04609
S11325A068060020F0B5474680B484B015000029C1
S11325B002D0012964D068E05378052B50D0092B50
S11325C063D19278334BDA76002A02D1324B9847A2
S11325D039E0304B1B6859681868304B984700281D
S11325E031D0C17809028378591889B2411803910E
S11325F004222B4B98470290002824D0FF24254F17
S1132600274B98468678A64211D03C69002C0BD003
S113261002AA0021200063689847002806D0246895
S1132620002CF5D1340002E0340000E03400029BB9
S1132630187818180290039B019304221900C047CC
S113264002900028DED1AB78E978090219434B1EC9
S1132650994103310F4B99760120124B984714E0AE
S11326609078114B9847AB78E978090219434B1ECF
S113267099410231074B997601200A4B984704E0AF
S1132680012229000020094B9847002004B004BC13
S11326909046F0BD68060020FD240000792B000060
S11326A0FD2A00001D250000F1050000452500005D
S11326B010B50D4B98470D4C0223A3760023E37607
S11326C000200B4B9847207F0A4B98470A4A002169
S11326D000200A4CA0470A4A02210020A0470020FB
S11326E0084B984710BDC046FD2400006806002032
S11326F06506000051060000492700007908000023
S1132700A52500009106000010B5002802D001287C
S113271004D005E00020034B984701E0024B9847A2
S113272010BDC0461D250000B126000010B584B0C0
S113273001AC01910292207263722000014B984710
S113274004B010BDD9060000F0B583B006000D003A
S113275000229D4B9847041E00D031E12A781F23A4
S11327601100994303D0CBB2802B7AD028E16B7847
S11327700B2B00D924E19B009449CB589F4601239D
S1132780002200213000924CA04744424441E4B26C
S113279016E11F231A40022A00D011E1AA79EB792D
S11327A01B02134300D00BE128790021894B984781
S11327B0012405E11F231A40022A00D000E1AA796E
S11327C0EB791B02134300D0FAE028790121814BF5
S11327D098470124F4E0AB78EE7836021E432B7957
S11327E06D792D021D437C4B1B6818680090596855
S11327F001910422794B9847002800D1E0E0774FFB
S113280009E0009B18781818009004220199B84731
S1132810002800D1D4E08378AB42F2D1C378B3422C
S1132820EFD100906C4B1D69002D00D1C8E06A46C1
S1132830012128006B689847002803D02D68002DDB
S1132840F5D1BDE06B686A4600212800984700284E
S113285000D0B5E00023002200215D4CA0470124F4
S1132860AEE06B78062B0BD0D9B2062902D8002B28
S11328706BD0A5E0082B5CD00A2B00D187E09FE049
S1132880AB79EF793F021F43AA78EB781B0213431D
S1132890DAB25149097F01393940080041424141C6
S11328A0CDB21B0A022B12D0032B2CD0012B00D04B
S11328B086E03A1C122F00D9122292B2464B1B68B2
S11328C0196800233000424CA047012478E0424BB1
S11328D01B680132D2B259681868414B98470028E6
S11328E06ED0C3781B028278D3189BB29F4201D961
S11328F01F0000E000252B003A0001003000344C9A
S1132900A04701245CE0344B1B6859681868354BB8
S11329109847002854D003789F4201D91F0000E053
S113292000252B003A0001003000294CA047012467
S113293046E0294BDA7E59690A705969002301225D
S11329403000234CA04701243AE01F231A40D3B29D
S1132950012B02D9022A03D032E00023009308E0BD
S1132960287902211B4B9847002829DB01231840B2
S11329700090194C0222694660691B4B98476169B3
S1132980002302223000124CA047012418E0124B0D
S11329901E69002E14D02A00022130007368984763
S11329A0002803DA3668002EF5D109E00A4B5A698B
S11329B010705969002301220020054CA04701240E
S11329C0200003B0F0BDC04645250000C02E000025
S11329D02D2700000D08000068060020FD2A0000D5
S11329E0792B0000E52B0000512D000010B50128C3
S11329F009D0002802D002280AD00DE0074804308C
S1132A00074B984708E005480830054B984703E012
S1132A1002480C30024B984710BDC046680600209F
S1132A20F908000070B50400431E9841C0B20C4A76
S1132A300C490D4B98470D4B984700280EDB0C4D65
S1132A402022002128000B4B98476C610A49002082
S1132A500A4CA0470A490120A047002070BDC04687
S1132A6099020000F02E0000C9080000590500007A
S1132A7068060020632D000085250000CD050000B8
S1132A800927000010B5010002481030024B984796
S1132A9010BDC04668060020F908000010B50B4BB5
S1132AA09B7E002B0CD100280DD0084B18600268C7
S1132AB0D2791A7701229A76054B9847002004E0D0
S1132AC00420404201E00920404210BD6806002075
S1132AD0D905000010B5014B984710BDE50500006D
S1132AE0014B58697047C04668060020024B987E27
S1132AF0C30600D5102070476806002010B5884230
S1132B0011D20378012B10D94478944206D10FE0F6
S1132B100378012B0BD94478944209D0C018814220
S1132B20F6D8002004E0002002E0002000E00020AD
S1132B3010BDC046884215D20378012B14D94278BF
S1132B40042A13D0052A08D115E00378012B0FD9E4
S1132B504278042A0ED0052A0DD0C0188142F4D838
S1132B60002008E0002006E0002004E0002002E04D
S1132B70002000E00020704770B50C001500022210
S1132B80174B984700281ED084421ED90378012B86
S1132B901DD94378022B1CD14379AB4209D11DE0E6
S1132BA00378012B17D94378022B16D14379AB4212
S1132BB014D0C3781B028278D3189BB2C018844205
S1132BC0EED800200AE0002008E0002006E0002003
S1132BD004E0002002E0002000E0002070BDC046B8
S1132BE0FD2A0000F8B50D001700884212D2002417
S1132BF00B4E03222900B04700280DD00378012B87
S1132C000CD9A7420BD00134E4B2C0188542F0D8E5
S1132C10002004E0002002E0002000E00020F8BDD5
S1132C20FD2A000010B5034B9847034B984700203A
S1132C3010BDC04615010000C52C000000B583B0CE
S1132C40031C01AA1080DB0703D540210248034B73
S1132C509847002003B000BD8806002045240000EA
S1132C6010B540210248034B9847002010BDC046D0
S1132C70880600204524000010B511000248034BCB
S1132C809847002010BDC04688060020712400002B
S1132C9010B506484030064B9847064B98470648FF
S1132CA0064B9847064B984710BDC046880600203F
S1132CB0252A000001240000080000209D2A0000AD
S1132CC0D52A000010B5074CA0470028FCD00649BF
S1132CD00020064CA04706490120A04705490320CF
S1132CE0A047FEE7F1240000792C00009D24000099
S1132CF0612C00003D2C000010B5014B984710BD1D
S1132D00912C00000E4B70B500251E000D4CE41AEA
S1132D10A410A54204D0AB00F35898470135F8E756
S1132D2000F0F2F8084B00251E00084CE41AA41029
S1132D30A54204D0AB00F35898470135F8E770BDBD
S1132D40142F0000142F0000142F0000182F00006F
S1132D50002310B59A4203D0CC5CC4540133F9E784
S1132D6010BD03008218934202D019700133FAE7B0
S1132D70704700002E2E2F68616C2F7574696C7378
S1132D802F7372632F7574696C735F6C6973742E1F
S1132D90630000002E2E2F68706C2F636F72652FF6
S1132DA068706C5F636F72655F6D30706C75735FB4
S1132DB0626173652E6300000000000000000000E3
S1132DC000000000000000000000000000000000FF
S1132DD000000000000000000000000000000000EF
S1132DE000000000000000000000000000000000DF
S1132DF000000000000000000000000000000000CF
S1132E0000000000000000000000000000000000BE
S1132E1000000000000000000000000000000000AE
S1132E20000000000000000000000000000000009E
S1132E30000000000000000000000000000000008E
S1132E40000000000000000000000000000000007E
S1132E50000000000000000000000000000000006E
S1132E60000000000000000000000000000000005E
S1132E7000000000000000002E2E2F68706C2F70E0
S1132E806F72742F68706C5F706F72742E630000C1
S1132E9000200000254A0000040800000406002069
S1132EA00000000040000000C405002000000000F5
S1132EB040000000840500200000000040000000E5
S1132EC0C029000092270000C0290000B427000098
S1132ED0C02900007E270000C0290000C02900008E
S1132EE0C02900007E270000C0290000D62700006A
S1132EF02E2E2F7573622F6465766963652F757343
S1132F006264632E63000000F8B5C046F8BC08BCD8
S1132F109E467047DD000000F8B5C046F8BC08BC0A
S10B2F209E467047B500000055
S1132F28000000006121000010000020650000205E
S1132F381201000202000040EB0304240001000017
S1132F480001090243000201008032090400000163
S1132F5802020000052400011005240101000424D4
S1132F68020205240600010705820340000A090439
S1132F780100020A000000070501024000000705DD
S10B2F8881024000000000007A
S9030000FC
