:1000000040200020D9050000D5050000D5050000DE
:1000100000000000000000000000000000000000E0
:10002000000000000000000000000000D5050000F6
:100030000000000000000000D5050000D50500000C
:10004000D5050000D5050000D5050000D505000048
:10005000D5050000D5050000D5050000D505000038
:10006000D5050000D5050000D5050000D505000028
:10007000D5050000D5050000D5050000D505000018
:10008000D5050000D5050000D5050000D505000008
:10009000D5050000D5050000D5050000D5050000F8
:1000A000D5050000D5050000D5050000D5050000E8
:1000B0000000000010B5064C2378002B07D1054B3B
:1000C000002B02D0044800E000BF0123237010BDC4
:1000D000040000200000000064080000084B10B578
:1000E000002B03D00749084800E000BF0748036819
:1000F000002B00D110BD064B002BFBD09847F9E731
:1001000000000000080000206408000064080000EF
:100110000000000000B583B001AB80221A700A789D
:100120005A704A789A708A78DA701900014B9847A9
:1001300003B000BD750500007047C0460C4B1B683E
:10014000002B10D1EFF31083002B09D172B6BFF34F
:100150005F8F0022074B1A700132074B1A7002E0C2
:100160000022054B1A70024A13680133136070476E
:10017000200000200000002024000020084B1A6806
:10018000013A1A601B68002B09D1064B1B78002B23
:1001900005D00122044B1A70BFF35F8F62B670471F
:1001A00020000020240000200000002010B50828B6
:1001B00003D880001C4B1B589F46002032E01B4B8D
:1001C00018692FE01A4B187D0007800F0130194B7A
:1001D000584327E0154B586924E0144B1B68022054
:1001E00018401FD0124980225200CB681342FCD025
:1001F0000E4B1B685B0714D500200F4B98470B4B29
:100200009B681B041B0C58430CE02823084AD35C52
:1002100000209B0706D5054BD86803E0802000022C
:1002200000E0064810BDC04620080000280000205D
:10023000000C004000093D009D040000006CDC0241
:1002400010B584B0802252002B4B9A60FD3A2B4BA4
:100250009A602B4A53681E218B4353608023DB0531
:100260009B78022B09D08023DB0501229A71013291
:100270009A701A009379002BFCD01F4B1A7D8021B5
:1002800049420A431A751A7DC0318A431A751D4BBB
:1002900098471D4C0123A3716371237122780421B7
:1002A0008A43227001A94B6000234B7006220A701A
:1002B0000B724B720020154B98470020144B984747
:1002C0000020144B98472179C9B2134B9847134B20
:1002D00098420ED88023DB059B78002B09D0802321
:1002E000DB0501229A7100229A701A009379002B83
:1002F000FCD004B010BDC046000C0040001400400B
:1003000000400041210300000004004045030000BC
:10031000F103000031040000BD060000001BB7001F
:10032000064A516940230B4353610122044B1A7062
:1003300019000B781342FCD17047C04600040040FE
:100340000018004070B505000C784B78002B02D0E7
:100350008023DB001C434B7A002B02D080231B013F
:100360001C434A68012A17D9531E1A420FD1022A88
:1003700006D90223002001305B009A42FBD800E03E
:10038000002080235B011C430004044304E01204AA
:1003900080239B001A4314430B7A002B02D0802346
:1003A0009B011C430426AE400D490E4A4B68134086
:1003B0001E42FBD10C4B9847AD00094B9C4665444F
:1003C000286A80235B001840204328626146054A62
:1003D0004B6813401E42FBD1044B984770BDC0468A
:1003E00000180040FC0700003D0100007D010000F6
:1003F00010B504000422824009480A4943680B40B2
:100400001A42FBD1084B9847A400054B9C46644414
:10041000236A8022520013432362044B984710BD85
:1004200000180040FC0700003D0100007D010000B5
:10043000F8B50400042282401248134943680B4077
:100440001A42FBD1114B98470E4F0834A400E059D3
:10045000C006C00E0E4B98470600E559ED04ED0F9F
:10046000E459240C0B4B9847002D07D1012C07D9D8
:1004700021003000084B9847060001E00134E640B7
:100480003000F8BD00180040FC0700003D010000EE
:10049000AD0100007D010000BD06000010B50400A4
:1004A000064B98472034A400054BE4582407240F3A
:1004B000044B98472000044B984710BD3D010000B5
:1004C000001800407D0100003104000030B5D378F1
:1004D000002B1ED11378802B04D01B0680246402CD
:1004E000234300E0002354780225AC430AD19478DA
:1004F000002C03D18024A402234302E0C024E402A0
:10050000234341605478013C012C12D8184C2340FD
:100510000FE041600B041B0CA024E405234383621D
:100520000B0CD024240623438362D378002B18D0ED
:100530001CE00C04240CA025ED052C431C43846214
:100540000C0CD0252D062C431C438462D478002C3F
:100550000CD15B0305D59378012B01D1816100E0BB
:1005600041615378013B012B00D8816030BDC0460A
:10057000FFFFFBFF10B503000A00C109002000299E
:1005800004D15809C00105498C4660441F210B4025
:100590001E399940024B984710BDC04600280040C4
:1005A000CD0400007047C04610B5054B9847054B79
:1005B0009847054B9847054B9847054B984710BD02
:1005C0004102000039010000A5050000A50500005A
:1005D000A5050000FEE7C04610B51D4B1D4A9A4216
:1005E00003D01D4B1A4A9A4204D31C4B1C4A9A4210
:1005F00010D31EE01B4A184B03339B1A9B08013390
:100600009B000022124813498C58845004329A42AD
:10061000FAD1EAE7144A114B03339B1A9B080133C2
:100620009B0000220E4800211418216004329A42D7
:10063000FAD10E4AFF210E4B8B4393600D4A51684D
:1006400080230B4353600C4B98470C4B9847FEE7B5
:10065000000000206408000004000020400000208A
:1006600004000020040000200800002000ED00E04D
:100670000000000000400041D50700008106000096
:1006800030B583B00A4B984701AC01236370002258
:10069000A270237021000720064DA84721000820E2
:1006A000A847054B80218022520099619A61FCE79E
:1006B000A9050000150100000028004000224308A1
:1006C0008B4274D303098B425FD3030A8B4244D31A
:1006D000030B8B4228D3030C8B420DD3FF2209025C
:1006E00012BA030C8B4202D31212090265D0030B1B
:1006F0008B4219D300E0090AC30B8B4201D3CB0311
:10070000C01A5241830B8B4201D38B03C01A524152
:10071000430B8B4201D34B03C01A5241030B8B4254
:1007200001D30B03C01A5241C30A8B4201D3CB023F
:10073000C01A5241830A8B4201D38B02C01A524124
:10074000430A8B4201D34B02C01A5241030A8B4227
:1007500001D30B02C01A5241CDD2C3098B4201D33F
:10076000CB01C01A524183098B4201D38B01C01ABD
:10077000524143098B4201D34B01C01A5241030934
:100780008B4201D30B01C01A5241C3088B4201D3E3
:10079000CB00C01A524183088B4201D38B00C01A90
:1007A000524143088B4201D34B00C01A5241411AB7
:1007B00000D20146524110467047FFE701B50020C4
:1007C00000F006F802BDC0460029F7D076E7704772
:1007D0007047C0460E4B70B500251E000D4CE41A44
:1007E000A410A54204D0AB00F35898470135F8E7B0
:1007F00000F028F8084B00251E00084CE41AA4104D
:10080000A54204D0AB00F35898470135F8E770BD16
:100810005008000050080000500800005408000074
:10082000BE010000BA010000BA0100001C02000075
:100830001C020000D4010000C4010000DA01000025
:100840000A020000F8B5C046F8BC08BC9E467047D6
:10085000DD000000F8B5C046F8BC08BC9E467047F5
:04086000B5000000DF
:04086400010000008F
:04000003000005D91B
:00000001FF
